:020000040800F2
:10000000E80600201D460008D5420008D742000837
:10001000D9420008DB420008DD4200080000000071
:10002000000000000000000000000000DF420008A7
:10003000E142000800000000E3420008E542000839
:10004000D9460008DD460008E14600089928000866
:10005000E5460008E9460008ED460008F1460008BC
:10006000F5460008F9460008FD460008014700086B
:1000700005470008094700080D4700081147000818
:1000800015470008194700081D47000821470008C8
:1000900025470008294700082D4700083147000878
:1000A00035470008394700083D4700084147000828
:1000B00045470008494700084D47000851470008D8
:1000C00055470008594700085D4700086147000888
:1000D0006547000851240008D5240008FD240008C5
:1000E000694700086D470008714700087547000818
:1000F000794700087D4700088147000885470008C8
:10010000894700088D470008914700089547000877
:1001100075250008D1250008994700089D4700086B
:10012000A1470008A5470008A9470008AD470008F7
:10013000BFF34F8FDFF8580C006810F4E060DFF871
:1001400050180843DFF8481C0860BFF34F8F00BF0A
:10015000FDE780B5002024E00121DFF83828C0B297
:10016000092303FB00F31A449170C0B20A2190FBEB
:10017000F1F13031DFF81C28C0B2092303FB00F392
:10018000D154C0B20A2190FBF1F201FB12013031CF
:10019000DFF80028C0B2092303FB00F31A445170B2
:1001A000401CC0B21528D7DBA02300225021DFF865
:1001B000E80B00F059FF00200BE0DFF8DC1BC0B2B9
:1001C0000144097CDFF8D42BC0B2024482F82C1021
:1001D000401CC0B20628F0DB00200CE0DFF8B81BA2
:1001E000C0B2014491F82010DFF8B02BC0B2024435
:1001F00082F83510401CC0B20B28EFDB00200CE069
:10020000DFF8941BC0B2014491F83010DFF88C2B5A
:10021000C0B2024482F83210401CC0B20328EFDBA7
:1002200000200CE0DFF8701BC0B2014491F84010D0
:10023000DFF8682BC0B2024482F84010401CC0B204
:100240000428EFDB002008E0DFF84C1BC0B2095C9B
:10025000DFF84C2BC0B21154401CC0B2FF28F3D1C0
:100260000B2000900023DFF83C2B8221802000F03F
:10027000FDFF032000900023DFF82C2B822190202B
:1002800000F0F4FF042000900023DFF8202B8221EF
:10029000D02000F0EBFF01BD80B501F0BDF90F23C8
:1002A000DFF80C2B0021012001F0A3F91023DFF867
:1002B000042B0021022001F09CF91023DFF8F82A1A
:1002C0000021032001F095F90E23DFF8F02A002128
:1002D000042001F08EF901BD10B58AB0002402A8F7
:1002E000DFF8DC1A1F2201F0DDF9DFF8D80A007808
:1002F0008DF80400DFF8D00A00788DF8050001F0D1
:100300000DFA044301F051FD044301F0D1FD044313
:10031000012000F02BFF044300F0ECFE044301F049
:1003200018F80443E4B2002C6ED0200602D5312028
:100330008DF80800600602D531208DF80900A0066E
:1003400002D531208DF80A00E00602D531208DF863
:100350000B00200702D531208DF80C00600702D574
:1003600031208DF80D00A00702D531208DF80E0048
:10037000E00702D531208DF80F001E2000900023E9
:1003800002AA8221002000F071FF082302AA0021A6
:10039000042001F02EF901200090002301AA802101
:1003A000022000F097FF642001F00BFE0120009076
:1003B000002301AA8021022000F08CFF642001F0BC
:1003C00000FE01200090002301AA8021022000F0FD
:1003D00081FF642001F0F5FD01200090002301AAB7
:1003E0008021022000F076FF642001F0EAFD012068
:1003F0000090002301AA8021022000F06BFF40F250
:10040000DC5001F0DEFD0AE001F0EEFD012000907D
:1004100000230DF105028021022000F05BFF0AB0ED
:1004200010BD80B501F0F6FD00F010FD00F0D6FF24
:1004300001F0A2FD01F028FE01F074FE01F0BEFE05
:1004400001F00AFF01F056FF01F0A0FF40F6B830BE
:1004500001F0B7FD002000F089FE02F08FF901F0F5
:10046000E1F8FFF739FFFFF774FEFFF715FF00F023
:1004700016F801BDC0B20A2190FBF1F13031DFF86E
:100480004C291170C0B20A2190FBF1F201FB12005D
:100490003030DFF838194870DFF83009704700B5A0
:1004A00083B0152001A900220A600EE0DFF8E414F1
:1004B000C0B2092202FB00F211448978002904D05D
:1004C0009DF80710491C8DF80710401EC0B2002887
:1004D000ECD19DF80700002804D00120DFF8B41407
:1004E000887006E00020DFF8AC14887000208DF8DA
:1004F00007009DF80700FFF7BDFF0223020003215C
:10050000042001F076F802200090022301AA822143
:10051000502000F0ABFE07BDDFF87804807800289B
:1005200005D10020DFF8A8180870002033E0012072
:1005300000E0401CC0B215282ADADFF894180978C8
:10054000C0B24118142903DB0021DFF884281170A0
:10055000DFF84014DFF878281278C0B28218092337
:100560005A43114489780029E3D0DFF82814DFF8D2
:1005700060281278C0B2821809235A43114400221D
:100580008A70DFF84C1809784018DFF844180870B2
:10059000DFF83C080078704770B5040000200026A2
:1005A000202523E0DFF8EC13C0B2092202FB00F2A1
:1005B0001144F6B23144C978DFF8D823E4B20923F4
:1005C00003FB04F31A44F6B23244D278914206D1C6
:1005D00001002200C9B2D2B2914200D06D00761C57
:1005E000F6B2062EDEDBEDB2202D2BDBEDB2202D98
:1005F0002FDB002621E0DFF8DC070088F6B2301898
:1006000002F054F902F062F902F0D0F90022DFF8AA
:10061000C83702F0E1F90022DFF8C03702F0AEFA85
:1006200002F0D8FBDFF86C13E4B2092202FB04F2FB
:100630001144F6B23144C870761CF6B2062EDADBED
:10064000012000E0401CC0B21528CFDA01250026A9
:10065000C6E7012070BD30B4002100220123012132
:1006600000E0491CC9B215292EDA0123002211E04D
:10067000C84CC9B2092505FB01F52C44D2B214447B
:10068000E478D2B200EB0205ED79303DAC4200D106
:100690005B00521CD2B2062AEADBDBB2402BE0D16F
:1006A000BC4AC9B2092303FB01F31A449278002A19
:1006B000D7D10120B74AC9B2092303FB01F31A4479
:1006C00090700800C0B200E0002030BC704710B449
:1006D0000021012200210DE0DFF8C036C9B20B4431
:1006E00093F82C30C9B200EB0104E479A34200D1A5
:1006F0005200491CC9B20629EEDBD2B2402A01D110
:10070000012000E0002010BC704700B58BB030E045
:10071000684601F0CCFFDFF8840669462C2200F021
:10072000D1FFDFF8BC060078002805D00020DFF8F4
:10073000B016087000F0B3F8DFF8A40690F8600077
:1007400000280BD00020DFF8981681F87F000020E9
:10075000DFF88C1681F8600000F01EF9DFF88006E3
:1007600090F82000002804D00020DFF8741681F8EB
:100770002000DFF86C0600780028C9D1DFF8600699
:1007800090F820000028C3D1DFF8540690F86000EC
:100790000028BDD10BB000BD0F2201784378591855
:1007A0006039002901D1012029E0002106E0C9B209
:1007B000435C303B0A2B00D2521E491CC9B20F29A0
:1007C000F5DBD2B2002A01D0002018E001783039E0
:1007D000052905D141783039022901D101200EE0E7
:1007E000DFF8B815C96802780A23407803FB0200D5
:1007F000B0F50470814201D0002000E00120704774
:1008000010B4012200210DE0DFF89035C9B20B448D
:1008100093F83230C9B200EB0104E47BA34200D16B
:100820005200491CC9B20329EEDBD2B2082A01D01A
:10083000002000E0012010BC704770B500240024A7
:1008400014E0DFF89C35E4B2234493F86830E4B256
:100850000355DFF88C35E4B2234493F86830DFF8B1
:100860004055D2B2E4B2A618AB55641C23000D006B
:10087000DBB2EDB2AB42E4D300240CE0A022E4B240
:10088000210089B2DFF81805E4B2005D00F0C0FB7A
:100890000028F3D0641CE4B2502CEFDB70BD10B51F
:1008A000DFF84005FFF778FF002859D0FFF734FE46
:1008B0000400E4B2002C45D00F23DFF828250021E6
:1008C000012000F096FE0A23DFF81C2503210220F8
:1008D00000F08FFE2000C0B2FFF75EFEE4B2200001
:1008E00080B201F0C3FB02232A48E4B2092101FBD4
:1008F00004F100EB01020421032000F07AFE210044
:10090000C9B2DFF8E00401F0AEF8002807D00A23EE
:10091000DFF8D8240321022000F06BFE06E00A2352
:10092000DFF8CC240321022000F063FE4FF4967020
:1009300001F047FB0A23DFF8BC240321022000F06A
:1009400058FE18E0022311A20421032000F051FEFA
:100950000A23DFF8A4240321022000F04AFE0AE063
:100960000F23DFF898240021012000F042FE4FF40D
:10097000487001F026FBFFF792FD0F23DFF83024CB
:100980000021012000F035FE10BD00005F5F000077
:100990000400FA05E80A002010B594B0DFF86004FE
:1009A00000788DF804000024DFF858040088ADF8C2
:1009B00006000FA8DFF850140F2200F073FE0BA8FA
:1009C000DFF848140F2200F06DFE07A8DFF840148E
:1009D0000F2200F067FE0220009000230DF10602B6
:1009E0008221702000F042FC0220009000230DF1D3
:1009F00006028221A02000F039FC02200090002392
:100A0000DFF810248221602000F030FC092000F083
:100A100090FCDFF8CC0390F8660020285AD03028EC
:100A200015D0402800F0DB80802800F0028190285B
:100A300000F01181B02800F02081C02800F02F8143
:100A4000D02800F06E81E02800F07D819BE1DFF886
:100A5000C803FFF700FE0400E4B2002C21D0C82038
:100A600001F0AFFAE4B2200080B201F0FFFA0220F8
:100A700000900023DFF8A4238221602000F0F6FB21
:100A80002000C0B2FFF7F6FC022100910023020013
:100A90008221702000F0EAFB2000C0B201F0CDF905
:100AA00017E04FF4FA7001F08CFA002001F0C5F95C
:100AB0000220009000230DF106028221702000F038
:100AC000D5FB022000900023D54A8221602000F04F
:100AD000CDFB58E1002408E0C148E4B2204490F87E
:100AE000680002A9E4B20855641CE4B2122CF3DBDE
:100AF00002A8FFF751FE002860D002A8FFF780FE91
:100B000000285BD0FFF708FD0400E4B2002C44D0BD
:100B1000C82001F056FA2000C0B2FFF73DFDE4B254
:100B2000200080B201F0A2FA042000900023BD4A08
:100B30008221602000F09AFB2000C0B2FFF79AFCEF
:100B400002000220009000238221702000F08EFB22
:100B50002000C0B201F071F90E20009000230FAA0E
:100B60008221A02000F082FB2100C9B202A800F07F
:100B70007AFF002808D00E20009000230BAA8221C3
:100B8000A02000F073FB29E00E200090002307AAAC
:100B90008221A02000F06AFB20E04FF4FA7001F0FF
:100BA00010FA02237BA20421032000F022FD0F2370
:100BB0009D4A0021022000F01CFD0FE04FF4FA7066
:100BC00001F0FFF9042000900023984A8221602060
:100BD00000F04CFB9649002001F080F8D3E04FF480
:100BE000967001F0EEF98C48FFF771FD002813D0E4
:100BF0009049002001F072F80220009000238E4AF4
:100C00008221602000F032FB4FF4FA7001F0D9F934
:100C10000B2000F08EFB0BE0022000900023874A9F
:100C20008221602000F022FB8549002001F056F867
:100C3000A9E04FF4967001F0C4F920220B21594825
:100C4000FFF7FBFD0220009000237E4A82216020F6
:100C500000F00CFB97E04FF4967001F0B2F93022EF
:100C600003215148FFF7E9FD022000900023754A57
:100C70008221602000F0FAFA85E04FF4967001F0CE
:100C8000A0F9102206217048FFF7D7FD022000903E
:100C900000236C4A8221602000F0E8FA73E04FF4F0
:100CA000967001F08EF94E4890F86800302804D113
:100CB0004B4890F86900302809D0494890F86800FE
:100CC00030280FD1464890F86900FF280AD1012446
:100CD000E4B2152C21DAE4B2200080B201F0C6F9AA
:100CE000641CF5E73E4890F86900FF2807D13C48AE
:100CF00090F86800303880B201F0B8F90DE038485B
:100D000090F868000A21364A92F8692001FB002019
:100D1000B0F5047080B201F0A9F90B2000F009FBD6
:100D200031E04FF4967001F04CF9402204211F4845
:100D3000FFF783FD022000900023424A82216020B9
:100D400000F094FA1FE04FF4967001F03AF924484D
:100D500090F86900012806D012D303280FD00BD3D6
:100D600004280DD00CE001200090002301AA80216E
:100D7000EA2000F0AFFA03E0FFF7DAF900E0FFE75E
:100D80000B2000F0D6FAFFF78AFB14B010BD00006C
:100D90000CED00E05F5F0000E8090020780C002007
:100DA000E8080020AD0C0020AA0C0020B80C0020A0
:100DB0009C4500085445000868450008AC450008FB
:100DC00040440008872000087A2B0008C80C002047
:100DD000CC0C0020CA0C0020000024400000D041B0
:100DE000A80B0020A90B0020384600084446000844
:100DF000504600085C46000868460008BC450008EC
:100E00007B2B0008E61F0008CC450008DC450008E5
:100E1000EC45000830010020090C002034010020BE
:100E20003201002038010020FC4500083601002076
:100E300074460008804600083C0100203A0100206A
:100E40008C4600083E010020A40C002080B5012142
:100E5000082002F061F8C020ADF8000003208DF8F2
:100E6000020014208DF803006946BA4802F0B6F873
:100E700001BD322000E0401EC0B20028FBD1704707
:100E800080B58020B44908604020B3490860FFF76E
:100E9000F0FFB2480068002801D1012000E00020E6
:100EA0008020AF490860FFF7E4FFAC480068000607
:100EB00001D5002005E08020A9490860FFF7D9FF8F
:100EC000012002BD80B54020A5490860FFF7D1FF91
:100ED0008020A3490860FFF7CCFF40209E490860AE
:100EE000FFF7C7FF80209C490860FFF7C2FF01BDE4
:100EF00080B540209A490860FFF7BBFF80209849E1
:100F00000860FFF7B6FF402093490860FFF7B1FF84
:100F1000402093490860FFF7ACFF01BD80B5402039
:100F20008F490860FFF7A5FF80208B490860FFF715
:100F3000A0FF402088490860FFF79BFF40208849B8
:100F40000860FFF796FF01BD80B540208449086026
:100F5000FFF78FFF802080490860FFF78AFF40205D
:100F60007D490860FFF785FF7C480068000604D5CE
:100F700040207B490860002003E040207849086059
:100F8000012002BD38B5040008250AE0802074491C
:100F900008606400FFF76DFF40206F490860FFF7AD
:100FA00068FF2800451EC0B200280AD040206C49C6
:100FB0000860FFF75EFF2006E8D5802066490860DC
:100FC000E7E740206649086031BD38B508240025B0
:100FD00080206149086010E06D0040206049086091
:100FE000FFF747FF40205C490860FFF742FF5B487E
:100FF0000068000601D555F001052000441EC0B26E
:101000000028E9D14020564908602800C0B232BD0E
:1010100070B504000D001600FFF732FF002801D163
:10102000002020E0ADB2E81110F00E0016F0FE0135
:101030000843C0B2FFF7A6FFFFF786FF002803D1E1
:10104000FFF740FF00200EE02800C0B2FFF79AFF34
:10105000FFF77AFF2000C0B2FFF794FFFFF774FF9D
:10106000FFF730FF012070BDF8B504000D00170038
:101070001E00FFF705FF002801D1002039E0BFB2B4
:10108000F81110F00E0016F0FE010843C0B2FFF791
:1010900079FFFFF759FF002803D1FFF713FF002066
:1010A00027E03800C0B2FFF76DFFFFF74DFFFFF7F5
:1010B000E7FEBFB2F81110F00E00304350F001000F
:1010C000C0B2FFF75FFFFFF73FFF03E0FFF710FF3E
:1010D000641C6D1EADB2002D08D0FFF776FF2070A6
:1010E000ADB2012DF2D1FFF719FFF1E7FFF7EAFEEC
:1010F0000120F2BD10B55A201A490870A5201949DF
:10110000487000240AE0A022210089B21548A4B248
:10111000005DFFF77DFF0028F5D0641CA4B2022C0F
:10112000F1DB642000F04DFFA023002202210E48D5
:10113000FFF79AFF0B4800780B490978884207D1DE
:101140000848407808494978884201D1002000E0E9
:10115000102010BD000C0140100C0140080C014093
:10116000140C0140E8080020E809002030B593B0D5
:1011700005000BA890491F2200F094FA03A88F499C
:101180001E2200F08FFA8E480088ADF8040002A8F5
:101190008C490A6802600024EDB2002D02D0012DB6
:1011A00014D05CE002200090002301AA80210020DE
:1011B00000F090F8002000F0BCF81E200090002302
:1011C00003AA8221002000F051F848E0022000909C
:1011D000002301AA8221002000F048F8022000909C
:1011E000002302AA8221002000F040F8764890F8FF
:1011F000600001280ED1744890F86700012809D1D9
:10120000714890F86800A52804D16F4890F86900EB
:101210005A2814D001200090022302AA8321002022
:1012200000F024F8C82000F0CCFE641CE4B20A2CC4
:10123000DCDB0020644981F86000082014E0022013
:101240000090002301AA8221002000F00FF81E2048
:10125000009000230BAA8221002000F007F8002054
:10126000594981F86000002013B030BDF0B583B05B
:1012700015001E0000276A46544BD3E9004CC2E912
:10128000004C089CE21C8DF802208DF80310010030
:1012900089B2090A8DF804108DF8050007E0684648
:1012A000FFB2C15D89B24A4801F0C1F87F1CFFB2AC
:1012B000062FF4D1370006E0FFB2E95D89B2444859
:1012C00001F0B5F87F1CFFB2F6B2E4B2A019874274
:1012D000F2DBF7BDF0B583B015001E0000276A46AB
:1012E0003C4BD3E9004CC2E9004C089CA21C8DF891
:1012F00002208DF803108DF8040007E06846FFB265
:10130000C15D89B2324801F092F87F1CFFB2052F0F
:10131000F4D1370006E0FFB2E95D89B22C4801F054
:1013200086F87F1CFFB2F6B2E4B2A0198742F2DB66
:10133000F7BD00B583B00021ADF804108DF80500AD
:1013400002200090002301AA80210320FFF7C2FFA2
:1013500007BD1CB5204800788DF804000A24012040
:101360000090002301AA81212020FFF7B3FF164837
:1013700090F86000002814D12000441EC0B200285C
:101380000FD00A2000F01DFEE4B2012CEFD10020A6
:101390000D4981F8600000200B4981F87F00202072
:1013A00008E00020084981F860000020064981F823
:1013B0007F00002016BD0000004400082044000803
:1013C0001A170008D4460008A80B0020B0460008F1
:1013D00000380140B84600088620000880B5012189
:1013E000082001F099FD4FF44870ADF8000010207E
:1013F0008DF8030003208DF802006946DFF894029F
:1014000001F0ECFD01BD38B550F0F804DFF88002C2
:10141000006830F40070DFF878120860142000F0E3
:10142000C3FDDFF86C02006850F02000DFF86012A6
:10143000086000251FE0DFF85802006830F4807073
:10144000DFF84C120860142000F0AEFDDFF8400217
:10145000006850F40070DFF838120860142000F0C3
:10146000A3FDDFF82C02006830F40070DFF82012D2
:10147000086064006D1CEDB2082D0ADA2006DAD58A
:10148000DFF80C02006850F48070DFF80412086086
:10149000D9E7142000F088FDDFF8F401006830F48B
:1014A0000070DFF8EC110860142000F07DFD31BD04
:1014B000F8B5040014F0F005480050F0F000C0B298
:1014C000FFF7A1FF002601E02501761CF6B2022EEF
:1014D0003ADADFF8BC01006830F40070DFF8B011D0
:1014E0000860142000F060FD00271FE0DFF8A00175
:1014F000006830F48070DFF898110860142000F064
:1015000053FDDFF88C01006850F40070DFF88011A3
:101510000860142000F048FDDFF87401006830F422
:101520000070DFF86C1108606D007F1CFFB2082F9F
:10153000CADA2806DAD5DFF85801006850F480705E
:10154000DFF84C110860D9E7142000F02DFDDFF81A
:101550004001006830F48070DFF834110860142016
:1015600000F022FDDFF82801006830F40070DFF899
:1015700020110860142000F017FDDFF81401006846
:101580007FF020010840DFF808110860142000F007
:101590000BFDF1BD80B50A00C0B2012806D021D3F1
:1015A000032811D009D3042815D01BE00021B2F183
:1015B0008000C0B2FFF77CFF1AE00021B2F170009A
:1015C000C0B2FFF775FF13E00021B2F17800C0B29E
:1015D000FFF76EFF0CE00021B2F16800C0B2FFF728
:1015E00067FF05E00021B2F18000C0B2FFF760FFA5
:1015F00001BD38B514001D00C9B2C0B2FFF7CAFF63
:1016000004E001212078FFF753FF641C2800451EE9
:10161000C0B20028F5D131BD80B500210120FFF70F
:1016200047FF01BD00B58DB007A81B49112200F08E
:1016300039F802A81949112200F034F8684618490F
:10164000D1E90023C0E9002300213020FFF730FF5B
:1016500000210C20FFF72CFF00210120FFF728FFBD
:1016600000210620FFF724FF102307AA00210120F4
:10167000FFF7BFFF102302AA00210320FFF7B9FFE5
:1016800007236A4600210420FFF7B3FF0DB000BD19
:101690000C0C0140000C0140184500082C450008C6
:1016A000C046000862B38B0708D0521E11F8013BF8
:1016B00000F8013B00F024808B07F6D1830740F04F
:1016C000208000BF103A07D330B4B1E83810103A88
:1016D000A0E83810F9D230BC530724BFB1E8081095
:1016E000A0E8081044BF51F8043B40F8043BD2077F
:1016F00024BF31F8022B20F8022B44BF0B78037073
:101700007047083A07D3B1E80810083A40F8043B9C
:1017100040F804CBF7D25307E4E7FFFF10B50024ED
:101720000020DFF8881581F820000020DFF87C1504
:1017300081F83F00DFF8780500F085F9322000F0ED
:1017400040FCDFF86C0500F07EF9DFF8600590F8EA
:101750002000002813D0DFF85405DFF8501591F869
:101760003F100844407F642809D1DFF84005DFF8C6
:101770003C1591F83F100844807F792836D0DFF877
:101780002C0590F8200000281DD0DFF82005DFF898
:101790001C1591F83F100844407F642809D1DFF8F8
:1017A0000C05DFF8081591F83F100844807F792870
:1017B00009D00020DFF8F41481F820000020DFF8C1
:1017C000EC1481F83F00C82000F0FBFB641CE4B27D
:1017D000642CBADB0020DFF8D41481F8200000204C
:1017E000DFF8C81481F83F0001202BE1002400201D
:1017F000DFF8B81481F820000020DFF8B01481F879
:101800003F00DFF8A80490F82000002813D0DFF88C
:101810009C04DFF8981491F83F100844407F4F284B
:1018200009D1DFF88804DFF8841491F83F100844E8
:10183000807F4B2816D0DFF87C0400F004F9C82024
:1018400000F0BFFB641CE4B20A2CDADB0020DFF8F6
:101850005C1481F820000020DFF8501481F83F006C
:101860000120EFE000240020DFF8401481F8200080
:101870000020DFF8381481F83F00DFF8300490F8DA
:101880002000002813D0DFF82404DFF8201491F89A
:101890003F100844407F4F2809D1DFF81004DFF8DB
:1018A0000C1491F83F100844807F4B2816D0DFF8C5
:1018B000080400F0C8F8C82000F083FB641CE4B200
:1018C0000A2CDADB0020DFF8E41381F82000002086
:1018D000DFF8D81381F83F000120B3E00024002096
:1018E000DFF8C81381F820000020DFF8C01381F86A
:1018F0003F00DFF8B80390F82000002813D0DFF88D
:10190000AC03DFF8A81391F83F100844407F4F283C
:1019100009D1DFF89803DFF8941391F83F100844D9
:10192000807F4B2816D0DFF8940300F08CF8C82095
:1019300000F047FB641CE4B20A2CDADB0020DFF87D
:101940006C1381F820000020DFF8601381F83F005D
:10195000012077E000240020DFF8501381F82000F8
:101960000020DFF8481381F83F00DFF8400390F8CB
:101970002000002813D0DFF83403DFF8301391F88B
:101980003F100844407F4F2809D1DFF82003DFF8DB
:101990001C1391F83F100844807F4B2816D0DFF8C5
:1019A000200300F050F8C82000F00BFB641CE4B2E8
:1019B0000A2CDADB0020DFF8F41281F82000002086
:1019C000DFF8E81281F83F0001203BE0002400200E
:1019D000B64981F820000020B44981F83F00B3489F
:1019E00090F8200000280FD0B048B04991F83F107F
:1019F0000844407F4F2807D1AC48AC4991F83F10CC
:101A00000844807F4B2813D0AE4800F01CF8C82053
:101A100000F0D7FA641CE4B20A2CE0DB0020A349F2
:101A200081F820000020A14981F83F00012009E051
:101A3000002400209D4981F8200000209B4981F866
:101A40003F00002010BD38B50400002506E0EDB2CF
:101A5000615D89B29C4800F0EAFC6D1CEDB2605DEE
:101A60000028F4D131BDF8B5002200241A228DF8E7
:101A700000206D4600222AE0944BC9B2092606FBDD
:101A800001F63344D2B21344DB783033102693FB93
:101A9000F6F330338E4ED2B206EB820686F8A630CD
:101AA0008A4BC9B2092606FB01F63344D2B213446D
:101AB000DB783033102693FBF6F706FB1733303311
:101AC000834ED2B206EB820686F8A730521CD2B201
:101AD000062AD1DB002226E07C4BC9B2092606FB90
:101AE00001F63344D2B29B5C102693FBF6F33033FD
:101AF000774ED2B206EB820686F87A30734BC9B2C3
:101B0000092606FB01F63344D2B29B5C102693FBF8
:101B1000F6F706FB173330336D4ED2B206EB820672
:101B200086F87B30521CD2B2022AD5DB002220E09C
:101B30006849D2B2114491F83210102391FBF3F1AD
:101B40003031634BD2B203EB820383F85A10614900
:101B5000D2B2114491F83210102391FBF3F603FB3B
:101B6000161130315A4BD2B203EB820383F85B106B
:101B7000521CD2B2032ADBDB002220E05549D2B24C
:101B8000114491F84010102391FBF3F13031504B88
:101B9000D2B203EB820383F8CE104E49D2B2114485
:101BA00091F84010102391FBF3F603FB161130312E
:101BB000474BD2B203EB820383F8CF10521CD2B250
:101BC000022ADBDB032220E04249D2B2114491F821
:101BD0003F10102391FBF3F130313D4BD2B203EBB8
:101BE000820383F8CE103B49D2B2114491F83F10E2
:101BF000102391FBF3F603FB16113031344BD2B2B4
:101C000003EB820383F8CF10521CD2B2052ADBDB30
:101C1000002209E0D2B200EB020189782E4BD2B249
:101C200003EB82031973521CD2B20C2AF2DB2A484E
:101C3000FFF709FF4FF4FA7000F0C3F92448FFF7EB
:101C400002FF2800FFF7FFFE184890F82000002848
:101C50000FD01648154991F83F100844407F4F288F
:101C600007D11248114991F83F100844807F4B2852
:101C700011D04FF47A7000F0A4F9641CE4B20A2C7D
:101C8000E2DB0020094981F820000020074981F8A3
:101C90003F00002008E00020044981F820000020D7
:101CA000024981F83F000120F2BD0000A80B00208E
:101CB0007C450008C84600088C45000840450008DF
:101CC000C44400082C46000800500040E80A0020E8
:101CD00000000020780C0020F40000202DE9FC41D9
:101CE00007000C0000255FF00008200001F0E0F97B
:101CF0000600FD208DF8000000208DF80100F01C8A
:101D00008DF8020001208DF80300380150F0010029
:101D10008DF804005FF000080CE0684610F8080039
:101D20004540684610F8081089B2574800F07FFB1C
:101D300018F10108B8F1050FEFD35FF000080AE0D1
:101D400014F80800454014F8081089B24E4800F015
:101D50006EFB18F10108F6B2B045F1D3EDB22900DF
:101D600089B2494800F063FBBDE8F38138B504004F
:101D7000002506E0EDB2615D89B2434800F057FBF3
:101D80006D1CEDB2052DF5DB31BD80B501211020B4
:101D900001F0C2F88020ADF8000048208DF8030063
:101DA00069463A4801F01AF901BD10B588B0684695
:101DB00037492022FFF786FCFFF7E7FF3548FFF79A
:101DC000D5FF642000F0FDF869460020FFF786FF8C
:101DD000642000F0F6F8304890F8410041281AD00D
:101DE0002D4890F841004E2815D02B4890F841001E
:101DF0004F2810D023A10120FFF770FFC82000F06A
:101E0000E0F8641CE4B20A2CE5DB0020224981F8EA
:101E1000400002200FE000201F4981F840001F48C9
:101E2000FFF7A4FF4FF4967000F0CBF81C49012097
:101E3000FFF754FF002008B010BD1FB5040068462E
:101E400018491022FFF73EFC1748E4B2092101FBB4
:101E500004F1405C8DF800001348E4B2092101FB55
:101E600004F1084440788DF80100E4B2002C04D05D
:101E700069460020FFF732FF03E00C490020FFF71E
:101E80002DFF1FBDBBB60000004C004000100140FC
:101E9000604400085C010020A80B002054010020D1
:101EA000DC4400080C460008E80A002098460008B8
:101EB00038B500240025684618490A6802601848A9
:101EC0000078002817D016481549C97F084410F833
:101ED000020C24280FD1002011490870002010495D
:101EE000C877002032BD6846EDB2415D89B20D4829
:101EF00000F09DFA6D1CEDB2042DF4DBC82000F05B
:101F000060F80025641CE4B20A2CD8DB00200449E8
:101F1000087000200249C8770420E3E7D046000893
:101F2000A80B00200048004040B2002808D5090155
:101F3000174A40B210F00F00104400F8041C03E0F0
:101F40000901144A40B21154704780B5411EB1F1E5
:101F5000807F01D301200EE0401E0F4908600F2151
:101F60005FF0FF30FFF7E0FF00200C49086007201A
:101F70000B490860002002BD80B50A48006842F2A3
:101F80001071B0FBF1F0FFF7E0FF0028F5D101BDC3
:101F900018ED00E000E400E014E000E018E000E0EC
:101FA00010E000E0640100200100481E89B2002911
:101FB00006D00A210A00511ED2B2002AFAD1F3E754
:101FC0007047002106E0521C92B242F645039A4245
:101FD000F9DB491C0A00030092B29BB29A4201D27B
:101FE0000022F1E77047FFFF80B50121102000F0CB
:101FF00093FF4FF40050ADF8000010208DF803005F
:1020000003208DF802006946014800F0E7FF01BD9A
:102010000010014080B50121102000F07DFF3F201D
:10202000ADF8000010208DF8030003208DF80200A9
:1020300069460C4800F0D2FF1F2000F001F801BDF6
:10204000C10604D44FF60F71084050F02000064935
:1020500009684FF6C072114080B208430249086017
:1020600070470000001001400C10014080B5401E78
:1020700080B2FFF7E5FF4FF49670FFF7A2FF1F2035
:10208000FFF7DEFF01BD070A00B585B0012104207E
:1020900000F042FF01214FF4804000F03DFF4FF47B
:1020A0000070ADF8000018208DF8030003208DF8B3
:1020B00002006946DFF8940500F090FF4FF480605D
:1020C000ADF8000004208DF8030003208DF8020015
:1020D0006946DFF8780500F081FF4FF46140019018
:1020E0000020ADF808000020ADF80A000020ADF88F
:1020F0000C000020ADF810000C20ADF80E0001A976
:10210000DFF84C0500F0F0FF012240F22551DFF826
:10211000400501F057F80121DFF8340501F044F8DB
:1021200005B000BD00B585B00121042000F0F4FE2B
:1021300001215FF4003000F0FFFE0420ADF8000044
:1021400018208DF8030003208DF802006946DFF89F
:10215000FC0400F043FF0820ADF8000004208DF8D7
:10216000030003208DF802006946DFF8E00400F068
:1021700035FF4FF4165001900020ADF80800002004
:10218000ADF80A000020ADF80C000020ADF81000FA
:102190000C20ADF80E0001A9DFF8B80400F0A4FF90
:1021A000012240F22551DFF8AC0401F00BF80121C7
:1021B000DFF8A00400F0F8FF05B000BD00B585B061
:1021C0000121082000F0A8FE01215FF4802000F02A
:1021D000B3FE4FF48060ADF8000018208DF80300C6
:1021E00003208DF802006946DFF86C0400F0F6FE6B
:1021F0004FF40060ADF8000004208DF803000320C8
:102200008DF802006946DFF8500400F0E7FE4FF455
:10221000165001900020ADF808000020ADF80A002B
:102220000020ADF80C000020ADF810000C20ADF837
:102230000E0001A9DFF8240400F056FF012240F24D
:102240002551DFF8180400F0BDFF0121DFF80C0470
:1022500000F0AAFF05B000BD00B585B00121102037
:1022600000F05AFE01215FF4002000F065FE4FF4FB
:102270008060ADF8000018208DF8030003208DF871
:1022800002006946DFF8D80300F0A8FE4FF40060B2
:10229000ADF8000004208DF8030003208DF8020043
:1022A0006946DFF8BC0300F099FE4FF41650019028
:1022B0000020ADF808000020ADF80A000020ADF8BD
:1022C0000C000020ADF810000C20ADF80E0001A9A4
:1022D000DFF8900300F008FF012240F22551DFF8FB
:1022E000840300F06FFF0121DFF8780300F05CFF4A
:1022F00005B000BD00B585B00121102000F00CFE36
:102300000121202000F008FE01215FF4801000F080
:1023100013FE4FF48050ADF8000018208DF8030034
:1023200003208DF802006946CD4800F057FE0420D6
:10233000ADF8000004208DF8030003208DF80200A2
:102340006946C94800F04AFE4FF41650019000203B
:10235000ADF808000020ADF80A000020ADF80C0030
:102360000020ADF810000C20ADF80E0001A9BF4808
:1023700000F0BAFE012240F22551BC4800F022FFD5
:102380000121BA4800F010FF05B000BD80B54FF440
:10239000E06000F09DFF25208DF8000001208DF801
:1023A000010000208DF8020001208DF8030068462E
:1023B00000F093FF26208DF8000001208DF8010029
:1023C00000208DF8020001208DF80300684600F01F
:1023D00084FF27208DF8000001208DF801000020E7
:1023E0008DF8020001208DF80300684600F075FFAB
:1023F00034208DF8000001208DF8010000208DF8B8
:10240000020001208DF80300684600F066FF3520C9
:102410008DF8000001208DF8010000208DF80200E9
:1024200001208DF80300684600F057FF01BD10B58C
:10243000040089B2200000F0EEFE4021200000F0F0
:10244000F2FE0128F9D14021200000F0F9FE10BD74
:1024500010B540F225517E4800F0F8FE002833D038
:10246000834890F87F40601C814981F87F0078485C
:1024700000F0D5FE7E49E4B2214481F861007C4839
:1024800090F87F0003281FDB794890F87F00784997
:1024900091F86310C91C884204DA754890F87F00EF
:1024A0001E2811DB724890F861005A2808D1704844
:1024B00090F86200A52803D101206D4981F86000E1
:1024C00000206B4981F87F0040F22551604800F000
:1024D000EFFE10BD80B540F225515E4800F0B6FE1B
:1024E000002805D063480188C9B257A000F02EFF2C
:1024F00040F22551574800F0DBFE01BD10B540F217
:102500002551564800F0A2FE00282DD05848C47F1F
:10251000601C5749C877514800F081FE5449E4B225
:102520002144487052485249C97F405C0A2809D169
:102530004F48C07F102805D101204D490870002068
:102540004B49C8774A484A49C97F084410F8010CEA
:10255000032802D10120464908704548C07F1E2843
:1025600002DB00204249C87740F225513B4800F089
:102570009FFE10BD80B540F225513A4800F066FE3E
:1025800000281FD0374800F04AFE3949384A92F8EF
:102590005F20114481F841003548354991F85F10BA
:1025A000084490F84100400603D50120304981F8E5
:1025B00040002F4890F83F001E2803DB00202C49E4
:1025C00081F83F0040F22551264800F071FE01BD20
:1025D00010B540F22551254800F038FE00282CD0D7
:1025E000234890F83F40601C214981F83F001F4874
:1025F00000F015FE1E49E4B2214481F821001C4878
:102600001B4991F83F100844C07F0D280CD1184891
:10261000174991F83F10084490F820000A2803D188
:102620000120134981F82000114890F83F001E282E
:1026300003DB00200E4981F83F0040F225510B4892
:1026400000F036FE10BD00002563000000080140C8
:102650000038014000440040000C014000480040A8
:1026600000100140004C00400014014000500040A8
:10267000A80B00200444004013B5040001A800F09A
:10268000CBFE0100486900F26C70486120002C22EA
:10269000FFF718F816BD0FB480B50798A0F26C705C
:1026A000079002A800F0C6FE02BC5DF814FB10B54E
:1026B0008CB0040000F047FF01006846FFF7DCFF24
:1026C000200069462C22FEF7FDFF0CB010BD10B5AE
:1026D000040000F05CFF200000F03FFF00F057FF17
:1026E00010BD0FB400B587B008A984B068462C228D
:1026F000FEF7E8FF0FBCFFF7CEFFFFF7E8FF07B0DC
:102700005DF814FB80B54FF4C06000F0E1FD0320DC
:102710008DF8000001208DF8010000208DF80200E6
:1027200001208DF80300684600F0D7FD01BD80B59B
:1027300001215FF0C05000F0FFFB012000F05EFFC0
:1027400000F062FF012000F06BFB412000F008FC6C
:102750000028FAD04FF4807000F077FB012000F0E1
:102760007AFB00F019FF00F012FF00F010FF47F6AF
:10277000FF7000F0FEFE00F00AFF01BD10B592B040
:102780002C21002207AC200000F046FFFFF7CFFF0E
:10279000FEF7DFFD002876D13E4890F86700102153
:1027A0003C4A92F86720102392FBF3F20A2303FBC2
:1027B000020290FBF1F001FB102010F5FA600C9082
:1027C000344890F868001021324A92F868201023AB
:1027D00092FBF3F20A2303FB020290FBF1F001FBF0
:1027E00010200B902B4890F869001021294A92F88C
:1027F0006920102392FBF3F20A2303FB020290FBF1
:10280000F1F001FB10200A90224890F86B00102193
:10281000204A92F86B20102392FBF3F20A2303FB69
:10282000020290FBF1F001FB10200990194890F88A
:102830006C001021174A92F86C20102392FBF3F2DF
:102840000A2303FB020290FBF1F001FB1020089029
:10285000104890F86D0010210E4A92F86D20102358
:1028600092FBF3F20A2303FB020290FBF1F001FB5F
:102870001020079007A984B068462C22FEF722FF9B
:102880000FBCFFF72EFFFFF73DFF00F088FB12B0F3
:1028900010BD0000A80B002080B5012000F088FECC
:1028A000002802D0012000F095FE01BD10B50446BD
:1028B000044800F0E4FE00210170034800F0DFFE50
:1028C000046010BDB0010020B4010020F8B5344F01
:1028D000384600F0D4FE0446381D00F0D0FE054610
:1028E00007F1080000F0CBFE064607F10C0000F0EF
:1028F000C6FE23782B492C4A002B40D12B6802FBC3
:1029000003132B60082702FB03132B6002FB031346
:102910002B6002FB03132B6002FB03132B6002FBF3
:1029200003132B6002FB03132B6002FB03132B60CA
:102930000346D5F800C002FB0C1CC5F800C043F8E4
:1029400004CB7F1ED5F800C002FB0C1CC5F800C0EC
:1029500043F804CBD5F800C002FB0C1CC5F800C03E
:1029600043F804CBD5F800C002FB0C1CC5F800C02E
:1029700043F804CBDDD1C36F3360012323702B6890
:1029800002FB03112960317801F01F0150F821206A
:1029900032602A6840F82120306820F04040F2BDC3
:1029A000B00100205FF36E3C0D661900010040F19C
:1029B0000780F446404200F003F851F000416047C0
:1029C00009D0B0FA80F18840C91CC1F584610905BD
:1029D00001EBD02140057047B0B581EA030C0CF043
:1029E000004C40F2FF7515EA11541DBF15EA13574C
:1029F000AC42AF4239E0E41923EA455343F4801373
:102A0000C90241F0004141EA505EC7021100A7FB34
:102A1000020200284FF00000EEFB01204FF0000101
:102A2000E3FB072118BF42F0010240180021494191
:102A3000E3FB0E01A4F580640F0302D25200404173
:102A4000494154F101046CDD470872F1004250F134
:102A5000000051EB0451A1F580115CBF41EA0C016B
:102A6000B0BD4CEA05510020B0BD05EA1357AC4299
:102A700014BFAF4241E050EA410E1CBF52EA430E80
:102A800002E061460020B0BD24423C441BD15FEA15
:102A9000070EF6D0090302BF01460020AEF1140E66
:102AA000B1FA81F7AEEB070401FA07FE0C37C7F164
:102AB000200100FA07F7C8404EEA000E23EA45530A
:102AC00043F48013A2E733F00043B3FA83F704BF63
:102AD000B2FA82FE77440B3FE41BB7F1200E2FBF02
:102AE00002FA0EF3BB40C7F1200E22FA0EFE38BFE9
:102AF00043EA0E03BA40641C82E750EA410E14BF59
:102B000052EA430E6FF000014FF4001717EB430F2A
:102B10008ABF194617EB410FB5E74CEA0551002073
:102B2000B0BDD4F10104B4F120070FDAC4F12007DD
:102B3000520828BF42F0010210FA07F501FA07F720
:102B4000E1BF2A43E0403843E1400FE0352C98DCF8
:102B5000C7F1200452EA400220FA07F218BF42F0FF
:102B6000010231FA07F0A1400A43002172F100424C
:102B700050F1000051EB0C01B0BD325A2DE9F0418B
:102B800040F2FF7581EA030C0CF0004C15EA115479
:102B90001DBF15EA1357AC42AF42E9E0BC41C1F397
:102BA0001301C3F31303801A994143F4801304D231
:102BB000641E4000494180185941C90241EA505100
:102BC000B1FBF3F603FB1611A2FB0675D7EBC02091
:102BD000A94102D2761E80185941C90241EA5051DA
:102BE000B1FBF3FE03FB1E11A2FB0E75D7EBC02059
:102BF000A94103D2AEF1010E80185941890241EA80
:102C00009051760546EA8E2EB1FBF3F603FB1611C2
:102C1000A2FB0675D7EB8020A94102D2761E801850
:102C20005941C90241EA50514EEA060EB1FBF3F692
:102C300003FB1611A2FB0675D7EBC020A94102D2F7
:102C4000761E80185941C90241EA5051B1FBF3F791
:102C500003FB1711A2FB0735D3EBC020A94167F195
:102C600000070CBF004247F0010766F3D5274FEA83
:102C70001E31B80814F5806414DDBD0775F10042FB
:102C800050EB0E5051EB045111F5801F5CBF41EA2F
:102C90000C01BDE8F0814CF07F6141F0E041002083
:102CA000BDE8F081BD076D0840EA0E5041F4801187
:102CB000D4F10104B4F120060ADAC4F120060200BE
:102CC000E04001FA06F3E1401843B24015430EE03C
:102CD000342C14DCC6F1200445EA40056D0820FAC6
:102CE00006F2154321FA06F0A1400D43002175F1CB
:102CF000004250F1000051EB0C01BDE8F0810020D2
:102D00005FEA0C01BDE8F081CFB992185B41B3FADC
:102D100083F704BFB2FA82F6BF190B3FB7F1200662
:102D20002FBF02FA06F3BB40C7F1200622FA06F6CF
:102D300038BF3343BA401CB1E419641E2FE77F4209
:102D400031F00041B1FA81F404BFB0FA80F6A41961
:102D50000B3CB4F120062FBF00FA06F1A140C4F1EC
:102D6000200620FA06F638BF3143A0403C1B16E788
:102D7000AC421ABF05EA1357AF4214E050EA4106CD
:102D80001CBF52EA4306BFE750EA4107304661469E
:102D90001CBF41EA0551BDE8F08152EA430C08BF6F
:102DA000C143BDE8F08100204FF4001616EB410F3F
:102DB00098BF16EB430F08BF16EB410F24BFC1436A
:102DC00005E016EB430F0CBF61464CEA0551BDE828
:102DD000F0810000F446400D40EAC120490006D2CF
:102DE00000F00EF8004248BF6FF00040604700F06E
:102DF00007F84FF0004188428CBF084640426047C8
:102E000040F00040490DA1F58061491C05D4D1F185
:102E10001F0154BFC840C01770474FF000007047F3
:102E20000021644A11700021624A1170C0B2012869
:102E300002D0042804D007E001205E49087003E0B6
:102E400005205C490870FFE770475A490968084344
:102E5000584908607047C0B2574908607047002160
:102E60000021002200215249096811F00C010029BB
:102E700004D0042905D0082906D021E04F4901607B
:102E800020E04E4901601DE04949096811F47011C4
:102E9000474A126812F48032890C891C002A03D137
:102EA000474A514301600AE0414A1268920303D540
:102EB000434A5143016002E0404A5143016001E04E
:102EC0003E4901603A49096811F0F00109093D4A9B
:102ED000515C0268CA4042603549096811F4E061FA
:102EE000090A384A515C4268CA4082603049096820
:102EF00011F46051C90A334A515C4268CA40C26049
:102F00002B49096811F44041890B2F4A515CC26872
:102F1000B2FBF1F101617047C9B2002905D02B491C
:102F2000096808432949086005E02849096831EA29
:102F30000000264908607047C9B2002905D024491D
:102F4000096808432249086005E02149096831EA17
:102F500000001F4908607047C0B21E4908607047F2
:102F60000021002200210100C9B24909C9B201298A
:102F700002D10E490A6806E0022902D10D490A6809
:102F800001E015490A68C0B210F01F01CA40D0071D
:102F900001D5012100E000210800C0B270470E48B1
:102FA000006850F080700C490860704700100240C3
:102FB00004100240201002403C04424200127A00F9
:102FC00000093D004001002050010020181002407F
:102FD0001C100240400442422410024070B40022FF
:102FE00000250023002600240025CA7812F00F02D5
:102FF000CB78DB0601D58B781A430B781B0621D0E2
:103000000468002306E0CD78482D02D101259D40BB
:1030100005615B1C082B14D2012515FA03F60D88F7
:103020003540B542F5D19E000F25B540AC4312FAAC
:1030300006F52C43CD78282DE5D101259D4045612D
:10304000E7E704600B88FF2B26DD4468002320E0BF
:10305000012513F1080615FA06F60D883540B5422C
:1030600016D19E000F25B540AC4312FA06F52C434D
:10307000CD78282D04D1012513F10806B54045610E
:10308000CD78482D04D1012513F10806B54005611E
:103090005B1C082BDCD3446070BC7047D2B2002AA2
:1030A00002D089B2016101E089B24161704700003C
:1030B00000F10103810704D010F8011B89B18107D9
:1030C000FAD10268B2F10131914311F0803F04BF9F
:1030D00050F8042FF6E710F8011B11B110F8011B8E
:1030E000FBE7C01A7047000070B586B004000D0001
:1030F00000200020002100210026A88900282600A9
:10310000208A4CF6FF710840E98808432082A08994
:103110004EF6F3110840A9882A8911436A891143A0
:103120000843A081A08A4FF6FF410840A9890843BF
:10313000A0826846FFF793FE1A48864201D10398A1
:1031400000E00298A189090406D51921484329689D
:103150004900B0FBF1F105E01921484329688900D5
:10316000B0FBF1F16420B1FBF0F00001020964232F
:1031700003FB1211A289120408D5C900323164225E
:10318000B1FBF2F111F00701084307E00901323108
:103190006422B1FBF2F111F00F010843208106B067
:1031A00070BD000000380140C9B2002904D08189F7
:1031B00051F40051818104E081894DF6FF72114084
:1031C0008181704730B4002300240024002589B297
:1031D00040F66A13994205000800C0B24309DBB209
:1031E00089B211F01F04012010FA04F4012B01D15F
:1031F0000C3504E0022B01D1103500E01435D2B2B9
:10320000002A03D028682043286002E02868A043F1
:10321000286030BC7047C905C90D8180704780881F
:10322000C005C00D7047002289B2B1F5007F00884B
:10323000084201D0012200E000221000C0B2704715
:1032400089B28A0589B2C9430180704710B400224F
:1032500000230022002289B240F66A1291420A003D
:10326000D2B25209D2B289B211F01F03012414FA6A
:1032700003F3012A02D18289134006E0022A02D117
:10328000028A134001E0828A134089B20A0A92B28C
:10329000012111FA02F200880240002B03D0002A1B
:1032A00001D0012200E000221000C0B210BC704723
:1032B0000022002289B240F66A12914289B20A0ABB
:1032C000012111FA02F292B2D1430180704700004D
:1032D00019490843194908607047002100220F234B
:1032E000C17800291DD01549096811F4E061D1F5B4
:1032F000E061090AD1F10402CB4041789140827823
:103300001A40114309010E4A0378D1540121027871
:1033100012F01F0291400B4A0078401142F8201031
:1033200009E00121027812F01F029140064A00785C
:10333000401142F8201070470000FA050CED00E043
:1033400000E400E000E100E080E100E00EB400B540
:1033500082B003A9009102466B46012103487844DC
:103360000A3000F099F906BC5DF810FB89110000E5
:10337000F0B5264E83B0304600F081F90446244D66
:10338000284600F07CF9006808B900F021FA2846C8
:1033900000F075F90546301D00F071F90646286801
:1033A000216881422BD0007810B900F035FA2860EE
:1033B0006A462868022100F034FA074600230A22F0
:1033C00001A900F04FFA30600199009AC91B91429F
:1033D00005D100F2135040F62721884201D3002086
:1033E000306030680B4980FB0121491101EBD1713C
:1033F00001EB8102C0EBC2003060286820603068B9
:10340000A0EB0011880003B0F0BD0000A80100206F
:103410003C0200201F85EB5110B50446FFF7A8FFC2
:103420002168BDE8104041184FF0FF32002000F045
:103430007ABA0000F8B504463649206980FB0121BC
:103440004A1002EBD27202EB4201B0EB810144BFA1
:103450000C31521E002A51D56069C2F100439842D6
:1034600054DB60691518284600F040FA40F26D11EF
:1034700001FB0500A16862682368274DD4F80CE0C1
:1034800082FB0565234E81FB0676244F1544B6105A
:1034900083FB07C7AD1206EBD6761F44704405EBDD
:1034A000D5753F14301806EB460607EBD77728187A
:1034B000A1EBC6013818DFF868E0DFF868C04FF408
:1034C0006166704471430CFB00104FF4B46101FB62
:1034D0001521C1EB011200EB820018180CFB170537
:1034E000226A2946204600F01EFA206A0128A8BF59
:1034F000A5F56165FFF73CFF281AF2BD012AB0DB94
:103500006FF000406369801A9842AADA4FF0FF30EA
:10351000F2BD00BFABAAAA2AB7600BB607452EC200
:10352000209CFFFF805101002F48008850F01000C0
:103530002D49088070472C4800884FF6EF710840ED
:1035400029490880704700202848008828490988B0
:1035500089B280B250EA0140704710B50400FFF70D
:10356000E3FF200C2249088020480480FFF7E3FF96
:1035700010BD10B50400FFF7D7FF200C10F00F00AE
:103580001C4908801C480480FFF7D5FF10BD164871
:1035900000888006FBD57047134800884FF6F77106
:1035A000084011490880104800880007FBD5704783
:1035B00000210D49098801400A4A128892B202424C
:1035C00004D0C9B2002901D0012100E00021080087
:1035D000C0B270470449098831EA000002490880F6
:1035E0007047000000280040042800401C280040CC
:1035F00018280040082800400C280040C0B20149AB
:103600000860704720000E4280B50120FFF7A4FC3F
:103610000020FFF7A1FC01BD62F30F2262F31F42FD
:10362000401810F0030308D0C91A1FD3DB0748BFA6
:1036300000F8012D28BF20F8022D130030B41446E5
:103640001546103928BF20E93C00FAD8490728BFA1
:1036500020E90C0048BF40F8042D890028BF20F85D
:10366000022D48BF00F8012D30BC7047C91818BFA3
:1036700000F8012DCB0728BF00F8012D70477047D7
:1036800070B504461E000846154604D015F8011B07
:10369000A047761EFAD170BD2DE9F04683B0824670
:1036A000894614461F4607E00123224649465046F4
:1036B000FFF7E6FF8146641C2078010003D100205B
:1036C00003B0BDE8F0862528EED16078A41C25283B
:1036D000014618D058285CD063280ED0642818BF43
:1036E000692814D06F2854D0702858D073285DD022
:1036F000752818BF78284CD0DEE73868386050F855
:10370000041B3860C9B24846D0478146D4E73868C0
:10371000386050F8045B3860002D03D52D214846F1
:10372000D047814664206F2808BF082205D040F0AA
:103730002001782914BF0A2210220B216428AC46EC
:1037400003D1002D48BFCCF1000CBCFBF2F502FB0D
:1037500015CC0CF130065FFA86FC4B1EBCF13A0F1B
:10376000A4BFA0F15106B4440DF803C019465FEAA6
:10377000050C01D00129E8DA4846D1F10B090DEB1F
:103780000105C2D015F8011BD047B9F10109F9D1E3
:10379000BBE73968396051F8045B3960C3E73868C2
:1037A000386050F8045B38607820BCE738683860CF
:1037B00050F8045B38602846FFF77AFC060048465C
:1037C000A3D015F8011BD047761EFAD19DE7000063
:1037D00038B5DFF838402046FFF751FF006848B998
:1037E0002046FFF74CFF0FF22C050560201DFFF768
:1037F00046FF056031BD10B50446DFF81400FFF741
:103800003EFF00EB8400006810BD00003C02002079
:1038100044020020000000000FF204007047000086
:103820003A00F8B504460D462078002816460CBF2D
:10383000002714F8017B01E06D1E441C3946204628
:1038400000F032F918B92046FFF732FC2044012D70
:1038500003DA001B30602046F2BD01780029EBD16D
:103860003160F2BD2DE9F84380460E0091461D46B9
:1038700008BF6E46474600E07F1C387800F01FF90D
:103880000028F9D138782D2816BF2B2817F8014BBE
:103890002B242B464A463146384600F01BF9316846
:1038A0008F4208BFC6F800803168884514D120B91E
:1038B0002D2C16D1B0F1004F15D900F0D5F92221E9
:1038C00001600DB1012028602D2C14BF6FF0004065
:1038D0004FF00040BDE8F2832B2CE9D1B0F1004F4E
:1038E000EBD2BDE8F2834042BDE8F283012804DB5D
:1038F000421E531002EB937205E010F1030F04DA3D
:10390000421000EB9272921000E0002210F0030FC0
:1039100000D110B90FF2781001E00FF25C1030F90D
:103920001100801870472DE9F84F04464A484018A6
:10393000154600901CB94948FFF7A1FE04462562D0
:103940004FF461650098DFF818A10FF244160FF2EA
:1039500028176FF0020840F26D1902E0009800F598
:103960006160404ADFF800C1A0FB0221090C0A4651
:10397000531C83FB0CEC9C444FEAAC0C0CEBDC7C42
:10398000CCEBCC0CA3EB0C03A361384B82FB03C341
:1039900013441B1203EBD37300E05B1E012B06DB09
:1039A000A3F1010C4FEA6C0E0CEB9E7C05E0434545
:1039B00006DA4FEA630C03EB9C7C4FEAAC0C01E0A7
:1039C0004FF0000C13F0030F02D10BB1BE4600E024
:1039D000B646BEF900E0F44409FB03CC6245DCDBEB
:1039E000A2EB0C0213F0030F6361E26100D10BB98B
:1039F000334600E03B464FF00C0C03F1180E3EF945
:103A000002BD5A45ACF1010CF9DBC4F810C00AFB49
:103A1000110033F91C30D21A521CE260144AA0FB88
:103A20000221C90AA16005FB1100124AA0FB022174
:103A30004909C1EB01126160A0EB82002060206A9D
:103A4000002805D5204600F015F90128206285DA06
:103A50002046BDE8F28F0000807EAA83B0020020DD
:103A60008051010007452EC293244992B1F98CB3CD
:103A7000C5B3A2918988888800001F003C005B00C4
:103A800079009800B600D500F400120131014F0111
:103A900000001F003B005A0078009700B500D400DA
:103AA000F300110130014E010278C9B28A421AB105
:103AB0001CBF10F8012FF9E718BF0020704710B5A0
:103AC00004460120FFF797FE2046BDE8104000F0B5
:103AD00075B900002DE9F04F85B004461E000D4673
:103AE00090461CBF00203060A14601E009F10109A9
:103AF00099F80000FFF7E3FF0028F7D199F80000DC
:103B00002D2816BF2B2819F8017B2B27B8F1000FA1
:103B100055D4B8F1010F52D0B8F1250F4FDAB8F1F2
:103B2000010F0DDBB8F1100F04BF99F80000302829
:103B300002BF99F8010040F02000782814D10EE06F
:103B400099F80000302818BF4FF00A080CD199F8F6
:103B5000010040F02000782804D14FF0100809F14E
:103B6000020901E04FF00808CDF8109001E009F1DA
:103B7000010999F800003028F9D00FF29C0B4FF0A2
:103B8000000ACDF80C908DF808B00AE09DF80810F6
:103B9000CDF804A0401AC0B2009008FB0A0A09F14F
:103BA000010999F8000000F013F901464246584611
:103BB00000F018F90028E9D10498484503D105B16F
:103BC0002C60002025E00FF27801039811F808100E
:103BD000A9EB0000401A14D4012808DA0098BAEBC7
:103BE000000004D30199B0FBF8F0884209D000F03E
:103BF0003BF8222101600EB1012030604FF0FF3A06
:103C000003E02D2F08BFCAF1000A0DB1C5F80090DE
:103C1000504605B0BDE8F08F303132333435363799
:103C200038396162636465666768696A6B6C6D6E7A
:103C30006F707172737475767778797A000000000E
:103C400000002115110E0D0C0B0B0A0A09090909B8
:103C500009080808080808080707070707070707EB
:103C600007070707070000000148FFF708BD00002D
:103C7000DC0200202DE9F84304464B484B4FFFF788
:103C8000FEFC80464A48FFF7FAFC05463846FFF737
:103C9000F6FC006808B9FFF79BFD3846FFF7EFFC1C
:103CA00006464448FFF7EBFC0746D8F80010386892
:103CB000814220D0007878B93068007810B9FFF7D9
:103CC000ABFD30606A4630680321FFF7AAFD38601B
:103CD000017809B1401E3860386800F0C5F8060068
:103CE00008BF4FF0FF305CD0286800F057F92E6015
:103CF0003868C8F8000000216069FFF7F7FD8046CA
:103D0000E169A0682D6801EB410200EBC207606920
:103D100040F26D1101FB0080401C274980FB01210E
:103D20000144891001EBD171C1EBC101401A4FF080
:103D3000000900F10E0600E06D1D2878FF282FD045
:103D4000606929798842F7DBE978FFF7CFFDA97828
:103D5000A0EB0800081829780A0011D03218521A6E
:103D6000154B82FB03C313449B1003EBD373C3EBCC
:103D7000C303D21A1CBFC01D801A0829B8BFC01FB8
:103D800000EB4001687800EBC100874208DB28792E
:103D9000697A88420CBF89F001094FF00009CBE72E
:103DA0004846BDE8F28300BFE00200203C0200204C
:103DB000E40200204002002093244992A0F109016E
:103DC000052901D3202801D1012070470020704728
:103DD00010B504460120FFF70EFD2046BDE8104057
:103DE00000F01CB9C9B2830706D0521E22D310F8C6
:103DF000013B9942F7D11FE0083A13D302F10402C4
:103E000041EA012141EA014150F8043B121F21BF60
:103E10004B40A3F1013C2CEA030C1CF0803FF3D093
:103E2000C9B2001F083210F8013B521E28BF91EAA8
:103E3000030FF8D818BF0120401E70470022491E0A
:103E40000CD40378303B0A2B08D202EB820310F823
:103E5000012B02EB4302303A491EF2D5002958BF2C
:103E60004FF0FF32104670472DE9F041054615F836
:103E7000018BB8F1000F00F08D802846022601E08A
:103E8000401C761C4146FFF70FFE0028F8D106EBD8
:103E9000860000F0C9F806007CD00027344600E018
:103EA000641D287828280BD10421681CFFF7C6FF61
:103EB000A0F26C77002F6AD46879292867D1AD1DEC
:103EC000277102212846FFF7B9FF401EE070AD1CA4
:103ED0002846002101220378303B0A2B08D201EB4F
:103EE000810310F8011B01EB43013039521EF2D55A
:103EF000002A54BFFE20481EA07015F8020F30386B
:103F00000A2813D22846002101220378303B0A2BCD
:103F100008D201EB810310F8011B01EB430130399A
:103F2000521EF2D5002A03D4FF2101E0002100E057
:103F3000AD1C6170E0780C28BFBFA0786428607861
:103F4000642824DA28782B2818BF2D2802D00020D6
:103F5000207010E06878A0F13001072917D23028CE
:103F60000CBF07203038207028782B2802D1207809
:103F7000C01D2070AD1C287828B9FF2060716772C1
:103F80003046BDE8F08115F8010B404588D0304639
:103F900000F004F80020BDE8F081000000B970478F
:103FA00038B5A0F108042068082833D310F0070FB3
:103FB00030D1C046C0461848416809B18C4203D28E
:103FC0006160446017E019464B680BB1A342FAD315
:103FD0000B68CD18AC421BD3A54204D12268D2187D
:103FE0000A600C4607E04A681AB1236823449A42E3
:103FF0000ED362604C60616851B12268A3188B4295
:1040000006D100230360086880182060486860605B
:10401000C046C04631BD0000BC0C0020A0F14101EB
:104020001A2938BF2030704770B5054605F10F00DA
:10403000C408C046C046E400A54232D2082C04D2CF
:10404000082402E00830FFF7A9FF224802681100A7
:104050000CD1011D0A6802B31368A34238BF111DB9
:10406000F8D310E01D68A5420DD2191D0B68002B76
:10407000F8D11268011D00E0191D0B6893420CD0A5
:104080001D68A542F8D361B10D682A68A2F1080342
:10409000A3420AD26A680A600FE000F01DF8002807
:1040A000D0D1C046C046002070BD2B190B60121B3A
:1040B0006E685E600B681A602C60096800291DBF7D
:1040C0004A68002A091D00210160C046C04605F16A
:1040D000080070BDBC0C00200749086808B100202A
:1040E00070470648C008C00008600549C908C900F3
:1040F000091A0160704700BFC40C0020EF060020C1
:10410000E808002080B54E48006850F001004C4996
:1041100008604C4800684C4908404A4908604848D3
:1041200000684A490840464908604548006830F43C
:104130008020434908604348006830F4FE0041494C
:1041400008605FF41F004249086000F005F85FF066
:1041500000604049086001BD80B500F001F801BD74
:1041600082B000200190002000903548006850F493
:104170008030334908603248006810F40030009005
:104180000198401C01900098002803D10198B0F5D7
:10419000A06FF0D12A480068800302D5012000906A
:1041A00001E0002000900098012847D12A480068CB
:1041B00050F01000284908602748006880088000F7
:1041C000254908602448006850F002002249086030
:1041D0001C4800681B4908601A48006819490860B3
:1041E0001848006850F48060164908601548006857
:1041F00030F47C10134908601248006850F4E8104D
:10420000104908600E48006850F080700C49086042
:104210000B4800688001FBD50A48006880088000D0
:10422000084908600748006850F002000549086026
:104230000448006810F00C000828F9D102B070475B
:1042400000100240041002400000FFF8FFFFF6FEDD
:104250000810024008ED00E000200240F0B40168C0
:1042600044688368014401EB5402E40748BF4B44AF
:10427000914202D1F0BC0C30704711F8015B15F08F
:10428000030604BF11F8014BE61C2C090F2C07D1C3
:1042900011F8014B0F3403E011F8017B03F8017BA7
:1042A000761EF9D1002CE3D0AD0811F8016B05F0B2
:1042B0000305032D08BF11F8015B06EB05256D42D0
:1042C000A41C1D44D4D015F8016B03F8016B641EC7
:1042D000F9D1CDE77047FEE7FEE7FEE7FEE770475E
:1042E0007047704780B514480088401C1249088008
:1042F0001148008842F2E451884205DA01224FF465
:1043000000510E48FEF7CAFE0B48008842F2E45105
:10431000401AB0F5967F05D800224FF400510748A7
:10432000FEF7BCFE0448008842F21171884202DBAD
:1043300000200149088001BDCA0C00200010014086
:1043400019E050F8041BCB0744BFA9F10103591829
:10435000121F0023042A41F8043BF9D25FEA827C51
:104360000B4604D54FF0000CA1F800C09B1CD107F0
:1043700044BF0021197050F8042B002AE1D1704786
:1043800080B5FCF74EF8FCF7C0F90A20FDF719FEDE
:10439000F9E710B504002100C9B289B20548FEF75B
:1043A0003AFF40210348FEF73EFF0028F9D02000E5
:1043B00010BD00000044004010B507497944183191
:1043C000064C7C44163404E00A68081D11448847F2
:1043D0000146A142F8D110BD0800000024000000F1
:1043E00061FFFFFFE8030000E80800200000000074
:1043F0006DFEFFFFBC0300008202000000000020F1
:104400002D2D2D2D2D2D2D2D2D2DC7E1B4A54C4F4E
:10441000474FBAF3BDF8C8EBCFB5CDB32D2D000093
:104420002D2D2D2D2D2D20202020204C6F616469F5
:104430006E6720202020202D2D2D2D2D2D000000F9
:1044400030303030303030302D2DC7E1B4A54C4FF6
:10445000474FBAF3BDF8C8EBCFB5CDB32D2D000053
:104460005B645D5B7631305D5B6D325D5B74365DE8
:104470005B6E325D5B79315D5B6F305D000000002B
:1044800000F00BF8002801D0FFF796FF0020C0468F
:10449000C046FFF775FF00F002F80120704700F0FA
:1044A00001B800000746384600F002F8FBE70000BC
:1044B00080B5C046C046024A11001820ABBEFBE7DB
:1044C0002600020041542B43534D503D31372C31CF
:1044D00036372C322C32350D0A000000BBB6D3AD76
:1044E000CAB9D3C3D6C7C4DCCBCDB2CDCFB5CDB35B
:1044F0000000000038B504460D46284600F006F8D6
:10450000A84218BF0024204632BD00000149FFF731
:1045100040BF00BF680100202D2D2D2DBBB6D3ADAF
:10452000CAB9D3C32D2D2D2D000000002D2DD6C7C7
:10453000C4DCCBCDB2CDCFB5CDB32D2D0000000066
:1045400041542B435343533D2255435332220D0ACA
:1045500000000000D7B4CCACA3BAC7EBC9A8C3E82D
:10456000B6A9B5A500000000C7EBCAB9D3C3A3BA6A
:104570005F5FBAC5B2CDB9F10000000041542B43D2
:1045800046554E3D312C310D0A00000041542B435D
:104590004D47443D312C340D0A0000002D2D2D2DAA
:1045A0002D2D2D2D2D2D2D2D2D2D2D00BFC9D3C3FE
:1045B000A3BA2020B8F6B2CDB9F100002D2D2D2DD3
:1045C000B5A5BAC5D3D0CEF32D2D2D00B6CCD0C510
:1045D000B7A2CBCDD6D02E2E2E2E0000B6CCD0C575
:1045E000D2D1B7A2CBCDB3C9B9A60000B6CCD0C545
:1045F000D2D1B7A2CBCDCAA7B0DC00002D2DCEDE24
:10460000BFC9D3C3B2CDB9F12D2D20006E6EBAC58E
:10461000CFE4C3C5D2D1B4F2BFAA0000014880479D
:104620000148004705410008A546000841542B43B6
:104630004D47463D310D0A00B7A2CBCDD6D02E2E28
:104640002E2E0000B7A2CBCDD2D1CDEAB3C9000047
:104650002D2DCEDEB7A8B7A2CBCD0000C7EBC9A8E1
:10466000C3E8CCF5C2EB0000CEDEBFC9D3C3B2CDE8
:10467000B9F10000B5A5BAC5D3D0CEF30000000053
:10468000B5C7C2BDB3C9B9A600000000C3DCC2EB08
:10469000B4EDCEF300000000C3DCC2EBB4EDCEF30A
:1046A00000000000C046C046C046C046FFF7E8FE16
:1046B0005AA50000000000005AA5000000000000FC
:1046C0006C6F6164696E670041540D0A0000000060
:1046D00002830382A55A0100FFF7FEBFFFF7FEBF6A
:1046E000FFF7FEBFFFF7FEBFFFF7FEBFFFF7FEBFFE
:1046F000FFF7FEBFFFF7FEBFFFF7FEBFFFF7FEBFEE
:10470000FFF7FEBFFFF7FEBFFFF7FEBFFFF7FEBFDD
:10471000FFF7FEBFFFF7FEBFFFF7FEBFFFF7FEBFCD
:10472000FFF7FEBFFFF7FEBFFFF7FEBFFFF7FEBFBD
:10473000FFF7FEBFFFF7FEBFFFF7FEBFFFF7FEBFAD
:10474000FFF7FEBFFFF7FEBFFFF7FEBFFFF7FEBF9D
:10475000FFF7FEBFFFF7FEBFFFF7FEBFFFF7FEBF8D
:10476000FFF7FEBFFFF7FEBFFFF7FEBFFFF7FEBF7D
:10477000FFF7FEBFFFF7FEBFFFF7FEBFFFF7FEBF6D
:10478000FFF7FEBFFFF7FEBFFFF7FEBFFFF7FEBF5D
:10479000FFF7FEBFFFF7FEBFFFF7FEBFFFF7FEBF4D
:1047A000FFF7FEBFFFF7FEBFFFF7FEBFFFF7FEBF3D
:1047B00010123330313038334443353330353931EA
:1047C00034443930303114101731354241323542DA
:1047D000393846463043354330463445384336321F
:1047E0003841251003363533353605100D4535373C
:1047F0003238384642443542383135440F500D4145
:104800003042353932373542363630303330042095
:10481000173137454334363637413830464436371A
:104820004443373638343030353804200635334683
:104830003739393130183002344532447020013371
:10484000443614600635424336373830312CE104A3
:10485000212C100A34454335354635333635453538
:104860006C223270110462418010013532347410B0
:1048700004303936353438121332000150074154B0
:104880002B434D47533D222D52350492360452316D
:104890004D523249400336220D0A00011005010035
:1048A0000200030004082001050006142002010292
:1048B000030404100B0607080902040608FD0002A1
:1048C00002FD192003FD000331CF21100AA24A0482
:1048D00002040101280C002078049228041003A58A
:1048E0000100208C04F21A0001F3FF010001F11114
:0148F00001C6
:04000005080046A504
:00000001FF
