:020000040800F2
:10000000D8060020613A0008CD370008CF37000835
:10001000D1370008D3370008D537000800000000AA
:10002000000000000000000000000000D7370008BA
:10003000D937000800000000DB370008DD37000872
:10004000F93A0008FD3A0008013B0008691A000867
:10005000053B0008093B00080D3B0008113B000868
:10006000153B0008193B00081D3B0008213B000818
:10007000253B0008293B00082D3B0008313B0008C8
:10008000353B0008393B00083D3B0008413B000878
:10009000453B0008493B00084D3B0008513B000828
:1000A000553B0008593B00085D3B0008613B0008D8
:1000B000653B0008693B00086D3B0008713B000888
:1000C000753B0008793B00087D3B0008813B000838
:1000D000853B0008B1130008351400085D140008C2
:1000E000893B00088D3B0008913B0008953B0008C8
:1000F000993B00089D3B0008A13B0008A53B000878
:10010000A93B0008AD3B0008B13B0008B53B000827
:10011000D514000831150008B93B0008BD3B0008A4
:10012000C13B0008C53B0008C93B0008CD3B0008A7
:1001300080B5002024E00121DFF8D027C0B20923D8
:1001400003FB00F31A449170C0B20A2190FBF1F155
:100150003031DFF8B827C0B2092303FB00F3D154D4
:10016000C0B20A2190FBF1F201FB12013031DFF83D
:100170009C27C0B2092303FB00F31A445170401CB2
:10018000C0B21528D7DBA02300225021DFF880075A
:1001900000F0DEFC00200BE0DFF87417C0B2014471
:1001A000097CDFF87027C0B2024482F82C10401C92
:1001B000C0B20628F0DB00200CE0DFF85417C0B214
:1001C000014491F82010DFF84C27C0B2024482F8B5
:1001D0003510401CC0B20B28EFDB00200CE0DFF82C
:1001E0003017C0B2014491F83010DFF82827C0B2B0
:1001F000024482F83210401CC0B20328EFDB00201A
:100200000CE0DFF80C17C0B2014491F84010DFF8A1
:100210000427C0B2024482F84010401CC0B2042837
:10022000EFDB01BD80B500F0FFFD0F23DFF8E8260E
:100230000021012000F0E5FD1023DFF8E026002179
:10024000022000F0DEFD1023DFF8D4260021032079
:1002500000F0D7FD0E23DFF8CC260021042000F0AB
:10026000D0FD01BD80B500F025FE00F08FFB00F051
:10027000BDFC00F081FE00F0B7FE00F003FF00F0CF
:100280004DFF00F099FF00F0E5FF01F02FF840F678
:10029000B83000F096FE002001F09EF901F056FB08
:1002A00000F0C8FDFFF744FFFFF7BCFF00F016F8B1
:1002B00001BDC0B20A2190FBF1F13031DFF86826B0
:1002C0001170C0B20A2190FBF1F201FB1200303034
:1002D000DFF854164870DFF85006704700B583B059
:1002E000152001A900220A600EE0DFF82016C0B236
:1002F000092202FB00F211448978002904D09DF8FC
:100300000710491C8DF80710401EC0B20028ECD120
:100310009DF80700002804D00120DFF8F015887050
:1003200006E00020DFF8E415887000208DF8070053
:100330009DF80700FFF7BDFF022302000321042000
:1003400000F05FFD02200090022301AA82215020CC
:1003500001F0C2F907BDDFF8B4058078002805D1A7
:100360000020DFF8C8150870002033E0012000E00D
:10037000401CC0B215282ADADFF8B0150978C0B2DF
:100380004118142903DB0021DFF8A0251170DFF8E4
:100390007C15DFF898251278C0B2821809235A43D9
:1003A000114489780029E3D0DFF86015DFF87C2557
:1003B0001278C0B2821809235A43114400228A706D
:1003C000DFF8681509784018DFF860150870DFF865
:1003D0005C050078704770B50400002000262025D9
:1003E00023E0DFF82815C0B2092202FB00F2114415
:1003F000F6B23144C978DFF81425E4B2092303FBCF
:1004000004F31A44F6B23244D278914206D1010084
:100410002200C9B2D2B2914200D06D00761CF6B271
:10042000062EDEDBEDB2202D2BDBEDB2202D2FDBF7
:10043000002621E0DFF8F8040088F6B2301801F059
:100440001DFB01F02BFB01F099FB0022DFF8E434E7
:1004500001F0AAFB0022DFF8E03401F077FC01F0A4
:10046000A1FDDFF8A814E4B2092202FB04F2114452
:10047000F6B23144C870761CF6B2062EDADB0120E3
:1004800000E0401CC0B21528CFDA01250026C6E7DF
:10049000012070BD30B4002100220123012100E0C1
:1004A000491CC9B2152931DA0123002212E0DFF814
:1004B0005C44C9B2092505FB01F52C44D2B21444B1
:1004C000E478D2B200EB0205ED79303DAC4200D1C8
:1004D0005B00521CD2B2062AE9DBDBB2402BDFD133
:1004E000DFF82824C9B2092303FB01F31A449278E8
:1004F000002AD5D10120DFF81424C9B2092303FB57
:1005000001F31A4490700800C0B200E0002030BC33
:10051000704710B40021012200210EE0DFF8F4330F
:10052000C9B20B4493F82C30C9B200EB0104E47952
:10053000303CA34200D15200491CC9B20629EDDB70
:10054000D2B2402A01D1012000E0002010BC704747
:1005500000B58BB030E0684601F091F9DFF8B403E4
:1005600069462C2201F054FDDFF8D0030078002802
:1005700005D00020DFF8C413087000F048F8DFF859
:10058000BC0390F8600000280BD00020DFF8AC130B
:1005900081F87F000020DFF8A41381F8600000F0EC
:1005A0009AF8DFF8980390F82000002804D0002083
:1005B000DFF8881381F82000DFF880030078002836
:1005C000C9D1DFF8780390F820000028C3D1DFF804
:1005D0006C0390F860000028BDD10BB000BD10B4D2
:1005E0000F23002208E0C9B2D2B25418045D303C97
:1005F0000A2C00D25B1E521CD2B20F2AF3DBDBB2F4
:10060000002B01D0002000E0012010BC704710B585
:100610000021CB48FFF7E3FF002853D0FFF79BFEF4
:100620000400E4B2002C41D00F23C54A0021012070
:1006300000F0E7FB0A23C34A0321022000F0E1FB9C
:100640002000C0B2FFF7C7FEE4B2200080B200F085
:100650005DFC0223AD48E4B2092101FB04F100EB8B
:1006600001020421032000F0CCFB2300DBB2A62210
:100670007A21B34801F008FD002806D00A23B24AC7
:100680000321022000F0BDFB05E00A23AF4A03214D
:10069000022000F0B6FB4FF4967000F092FC0A23A3
:1006A000AB4A0321022000F0ACFB0BE0022396A230
:1006B0000421032000F0A5FB0A23A64A03210220FF
:1006C00000F09FFBFFF70AFE0F23934A0021012051
:1006D00000F097FB10BD10B592B000209E48008836
:1006E000ADF804000AA89D490F2201F081FC06A87C
:1006F0009B490F2201F07CFC02A89A490F2201F0CD
:1007000077FC02200090002301AA8221702000F0D3
:10071000E3FF02200090002301AA8221A02000F024
:10072000DBFF0220009000238F4A8221602000F02E
:10073000D3FF092001F033F8804890F866002028A4
:1007400047D0302803D0402800F0B380DAE0874853
:10075000FFF7A0FE0400E4B2002C20D0C82000F077
:1007600030FCE4B2200080B200F0D0FB0220009008
:1007700000237F4A8221602000F0AEFF2000C0B23B
:10078000FFF797FD022100910023020082217020D3
:1007900000F0A2FF2000C0B201F092FD16E04FF47D
:1007A000FA7000F00EFC002001F08AFD022000909B
:1007B000002301AA8221702000F08EFF0220009009
:1007C00000236C4A8221602000F086FFFFF786FD3F
:1007D00098E0FFF7C0FD0400002008E05749C0B2D0
:1007E000014491F868100EAAC0B21154401CC0B266
:1007F0000F28F3DBE4B2002C48D0C82000F0E1FB66
:100800002000C0B2FFF7E7FDE4B2200080B200F0A4
:100810007DFB042000900023554A8221602000F0D7
:100820005BFF2000C0B2FFF744FD020002200090F1
:1008300000238221702000F04FFF2000C0B201F0A1
:100840003FFDFFF74BFD0E20009000230AAA8221F6
:10085000A02000F041FF2300DBB2A6227A210EA8DF
:1008600001F012FC002808D00E200090002302AAFC
:100870008221A02000F030FF1AE00E20009000231B
:1008800006AA8221A02000F027FF11E04FF4FA70A1
:1008900000F097FBFFF722FD02231BA20421032097
:1008A00000F0AFFA0F23344A0021022000F0A9FA29
:1008B00028E04FF4FA7000F084FB2C48FFF729FE83
:1008C000002813D02D49002001F0B2FC0220009036
:1008D00000232B4A8221602000F0FEFE4FF4FA70C4
:1008E00000F06FFB0B2000F05AFF0BE0022000909D
:1008F0000023244A8221602000F0EEFE22490020DD
:1009000001F096FC12B010BD5F5F0000D809002016
:10091000D8080020680B0020F0390008C83900080A
:10092000DC390008003A0008B80B0020BC0B00209E
:10093000BA0B0020000024400000D041980A00209B
:10094000990A0020703A00087C3A0008883A0008AA
:10095000943A0008A03A0008E60F0008103A000890
:10096000203A0008303A000830010020F90A00203F
:100970003401002032010020403A0008AC3A00085F
:100980003C0100203A010020B83A000880B501215E
:10099000082001F03FFDC020ADF8000003208DF8D5
:1009A000020014208DF8030069468C4801F094FD84
:1009B00001BD322000E0401EC0B20028FBD17047CC
:1009C00080B5802086490860402085490860FFF78F
:1009D000F0FF84480068002801D1012000E00020D9
:1009E000802081490860FFF7E4FF7E480068000628
:1009F00001D5002005E080207B490860FFF7D9FF82
:100A0000012002BD80B5402077490860FFF7D1FF83
:100A1000802075490860FFF7CCFF402070490860CE
:100A2000FFF7C7FF80206E490860FFF7C2FF01BDD6
:100A300080B540206C490860FFF7BBFF80206A4901
:100A40000860FFF7B6FF402065490860FFF7B1FF77
:100A5000402065490860FFF7ACFF01BD80B540202C
:100A600061490860FFF7A5FF80205D490860FFF736
:100A7000A0FF40205A490860FFF79BFF40205A49D9
:100A80000860FFF796FF01BD80B540205649086019
:100A9000FFF78FFF802052490860FFF78AFF402050
:100AA0004F490860FFF785FF4E480068000604D5EF
:100AB00040204D490860002003E040204A4908607A
:100AC000012002BD38B5040008250AE0802046490F
:100AD00008606400FFF76DFF402041490860FFF7A0
:100AE00068FF2800451EC0B200280AD040203E49B9
:100AF0000860FFF75EFF2006E8D5802038490860CF
:100B0000E7E740203849086031BD38B508240025A2
:100B100080203349086010E06D00402032490860B1
:100B2000FFF747FF40202E490860FFF742FF2D489E
:100B30000068000601D555F001052000441EC0B232
:100B40000028E9D14020284908602800C0B232BD01
:100B5000F8B504000D0017001E00FFF731FF002854
:100B600001D1002039E0BFB2F81110F00E0016F0EC
:100B7000FE010843C0B2FFF7A5FFFFF785FF00287D
:100B800003D1FFF73FFF002027E03800C0B2FFF796
:100B900099FFFFF779FFFFF713FFBFB2F81110F0CD
:100BA0000E00304350F00100C0B2FFF78BFFFFF79B
:100BB0006BFF03E0FFF73CFF641C6D1EADB2002D20
:100BC00008D0FFF7A2FF2070ADB2012DF2D1FFF7E0
:100BD00045FFF1E7FFF716FF0120F2BD000C0140D1
:100BE000100C0140080C0140140C014080B501219B
:100BF000082001F00FFC4FF44870ADF80000102001
:100C00008DF8030003208DF802006946DFF8940296
:100C100001F062FC01BD38B550F0F804DFF8800245
:100C2000006830F40070DFF878120860142000F0DB
:100C3000BBF9DFF86C02006850F02000DFF86012AA
:100C4000086000251FE0DFF85802006830F480706B
:100C5000DFF84C120860142000F0A6F9DFF840021B
:100C6000006850F40070DFF838120860142000F0BB
:100C70009BF9DFF82C02006830F40070DFF82012D6
:100C8000086064006D1CEDB2082D0ADA2006DAD582
:100C9000DFF80C02006850F48070DFF8041208607E
:100CA000D9E7142000F080F9DFF8F401006830F48F
:100CB0000070DFF8EC110860142000F075F931BD08
:100CC000F8B5040014F0F005480050F0F000C0B290
:100CD000FFF7A1FF002601E02501761CF6B2022EE7
:100CE0003ADADFF8BC01006830F40070DFF8B011C8
:100CF0000860142000F058F900271FE0DFF8A00179
:100D0000006830F48070DFF898110860142000F05B
:100D10004BF9DFF88C01006850F40070DFF88011A7
:100D20000860142000F040F9DFF87401006830F426
:100D30000070DFF86C1108606D007F1CFFB2082F97
:100D4000CADA2806DAD5DFF85801006850F4807056
:100D5000DFF84C110860D9E7142000F025F9DFF81E
:100D60004001006830F48070DFF83411086014200E
:100D700000F01AF9DFF82801006830F40070DFF89D
:100D800020110860142000F00FF9DFF8140100684A
:100D90007FF020010840DFF808110860142000F0FF
:100DA00003F9F1BD80B50A00C0B2012806D021D3F5
:100DB000032811D009D3042815D01BE00021B2F17B
:100DC0008000C0B2FFF77CFF1AE00021B2F1700092
:100DD000C0B2FFF775FF13E00021B2F17800C0B296
:100DE000FFF76EFF0CE00021B2F16800C0B2FFF720
:100DF00067FF05E00021B2F18000C0B2FFF760FF9D
:100E000001BD38B514001D00C9B2C0B2FFF7CAFF5A
:100E100004E001212078FFF753FF641C2800451EE1
:100E2000C0B20028F5D131BD80B500210120FFF707
:100E300047FF01BD00B58DB007A81B49112201F085
:100E4000D7F802A81949112201F0D2F868461849CA
:100E5000D1E90023C0E9002300213020FFF730FF53
:100E600000210C20FFF72CFF00210120FFF728FFB5
:100E700000210620FFF724FF102307AA00210120EC
:100E8000FFF7BFFF102302AA00210320FFF7B9FFDD
:100E900007236A4600210420FFF7B3FF0DB000BD11
:100EA0000C0C0140000C0140A0390008B4390008C6
:100EB000EC3A000880B50121102001F0ABFA3F2088
:100EC000ADF8000010208DF8030003208DF802001B
:100ED00069460C4801F000FB1F2000F001F801BD3D
:100EE000C10604D44FF60F71084050F020000649A7
:100EF00009684FF6C072114080B208430249086089
:100F000070470000001001400C10014080B5401EE9
:100F100080B2FFF7E5FF4FF4967000F052F81F2003
:100F2000FFF7DEFF01BDFFFF40B2002808D5090131
:100F3000174A40B210F00F00104400F8041C03E000
:100F40000901144A40B21154704780B5411EB1F1F5
:100F5000807F01D301200EE0401E0F4908600F2161
:100F60005FF0FF30FFF7E0FF00200C49086007202A
:100F70000B490860002002BD80B50A48006842F2B3
:100F80001071B0FBF1F0FFF7E0FF0028F5D101BDD3
:100F900018ED00E000E400E014E000E018E000E0FC
:100FA00010E000E0540100200100481E89B2002931
:100FB00006D00A210A00511ED2B2002AFAD1F3E764
:100FC0007047002106E0521C92B242F645039A4255
:100FD000F9DB491C0A00030092B29BB29A4201D28B
:100FE0000022F1E77047FFFF00B585B00121042022
:100FF00001F010FA01214FF4804001F00BFA4FF498
:101000000070ADF8000018208DF8030003208DF863
:1010100002006946DFF8940501F05EFA4FF4806043
:10102000ADF8000004208DF8030003208DF80200C5
:101030006946DFF8780501F04FFA4FF461400190FE
:101040000020ADF808000020ADF80A000020ADF83F
:101050000C000020ADF810000C20ADF80E0001A926
:10106000DFF84C0501F0A2FA012240F22551DFF829
:10107000400501F009FB0121DFF8340501F0F6FA23
:1010800005B000BD00B585B00121042001F0C2F912
:1010900001215FF4003001F0CDF90420ADF800002B
:1010A00018208DF8030003208DF802006946DFF850
:1010B000FC0401F011FA0820ADF8000004208DF8BE
:1010C000030003208DF802006946DFF8E00401F018
:1010D00003FA4FF4165001900020ADF808000020EC
:1010E000ADF80A000020ADF80C000020ADF81000AB
:1010F0000C20ADF80E0001A9DFF8B80401F056FA93
:10110000012240F22551DFF8AC0401F0BDFA0121C3
:10111000DFF8A00401F0AAFA05B000BD00B585B063
:101120000121082001F076F901215FF4802001F00F
:1011300081F94FF48060ADF8000018208DF80300AD
:1011400003208DF802006946DFF86C0401F0C4F951
:101150004FF40060ADF8000004208DF80300032078
:101160008DF802006946DFF8500401F0B5F94FF43C
:10117000165001900020ADF808000020ADF80A00DC
:101180000020ADF80C000020ADF810000C20ADF8E8
:101190000E0001A9DFF8240401F008FA012240F250
:1011A0002551DFF8180401F06FFA0121DFF80C0473
:1011B00001F05CFA05B000BD00B585B0012110203A
:1011C00001F028F901215FF4002001F033F94FF418
:1011D0008060ADF8000018208DF8030003208DF822
:1011E00002006946DFF8D80301F076F94FF4006099
:1011F000ADF8000004208DF8030003208DF80200F4
:101200006946DFF8BC0301F067F94FF4165001900E
:101210000020ADF808000020ADF80A000020ADF86D
:101220000C000020ADF810000C20ADF80E0001A954
:10123000DFF8900301F0BAF9012240F22551DFF8FE
:10124000840301F021FA0121DFF8780301F00EFA9E
:1012500005B000BD00B585B00121102001F0DAF81D
:101260000121202001F0D6F801215FF4801001F067
:10127000E1F84FF48050ADF8000018208DF803001D
:1012800003208DF802006946CD4801F025F90420BD
:10129000ADF8000004208DF8030003208DF8020053
:1012A0006946C94801F018F94FF416500190002022
:1012B000ADF808000020ADF80A000020ADF80C00E1
:1012C0000020ADF810000C20ADF80E0001A9BF48B9
:1012D00001F06CF9012240F22551BC4801F0D4F92B
:1012E0000121BA4801F0C2F905B000BD80B54FF444
:1012F000E06001F04FFA25208DF8000001208DF804
:10130000010000208DF8020001208DF803006846DE
:1013100001F045FA26208DF8000001208DF801002B
:1013200000208DF8020001208DF80300684601F0CE
:1013300036FA27208DF8000001208DF801000020EA
:101340008DF8020001208DF80300684601F027FAAD
:1013500034208DF8000001208DF8010000208DF868
:10136000020001208DF80300684601F018FA3520CC
:101370008DF8000001208DF8010000208DF802009A
:1013800001208DF80300684601F009FA01BD10B58F
:10139000040089B2200001F0A0F94021200001F0F2
:1013A000A4F90128F9D14021200001F0ABF910BDCA
:1013B00010B540F225517E4801F0AAF9002833D03B
:1013C000834890F87F40601C814981F87F0078480D
:1013D00001F087F97E49E4B2214481F861007C483C
:1013E00090F87F0003281FDB794890F87F00784948
:1013F00091F86310C91C884204DA754890F87F00A0
:101400001E2811DB724890F861005A2808D17048F4
:1014100090F86200A52803D101206D4981F8600091
:1014200000206B4981F87F0040F22551604801F0AF
:10143000A1F910BD80B540F225515E4801F068F970
:10144000002805D063480188C9B257A001F0E0F92F
:1014500040F22551574801F08DF901BD10B540F219
:101460002551564801F054F900282DD05848C47F22
:10147000601C5749C877514801F033F95449E4B228
:101480002144487052485249C97F405C0A2809D11A
:101490004F48C07F102805D101204D490870002019
:1014A0004B49C8774A484A49C97F084410F8010C9B
:1014B000032802D10120464908704548C07F1E28F4
:1014C00002DB00204249C87740F225513B4801F039
:1014D00051F910BD80B540F225513A4801F018F994
:1014E00000281FD0374801F0FCF83949384A92F8F3
:1014F0005F20114481F841003548354991F85F106B
:10150000084490F84100400603D50120304981F895
:1015100040002F4890F83F001E2803DB00202C4994
:1015200081F83F0040F22551264801F023F901BD22
:1015300010B540F22551254801F0EAF800282CD0DA
:10154000234890F83F40601C214981F83F001F4824
:1015500001F0C7F81E49E4B2214481F821001C487B
:101560001B4991F83F100844C07F0D280CD1184842
:10157000174991F83F10084490F820000A2803D139
:101580000120134981F82000114890F83F001E28DF
:1015900003DB00200E4981F83F0040F225510B4843
:1015A00001F0E8F810BD00002563000000080140CC
:1015B0000038014000440040000C01400048004059
:1015C00000100140004C0040001401400050004059
:1015D000980A00200444004030B593B005000BA8E1
:1015E00090491F2200F004FD03A88F491E2200F03D
:1015F000FFFC8E480088ADF8040002A88C490A68F8
:1016000002600024EDB2002D02D0012D14D05CE068
:1016100002200090002301AA8021002000F090F811
:10162000002000F0BCF81E200090002303AA8221B5
:10163000002000F051F848E002200090002301AAA9
:101640008221002000F048F802200090002302AA26
:101650008221002000F040F8764890F860000128D0
:101660000ED1744890F86700012809D1714890F8AC
:101670006800A52804D16F4890F869005A2814D052
:1016800001200090022302AA8321002000F024F808
:10169000C820FFF796FC641CE4B20A2CDCDB0020B7
:1016A000644981F86000082014E0022000900023C3
:1016B00001AA8221002000F00FF81E2000900023D4
:1016C0000BAA8221002000F007F80020594981F878
:1016D0006000002013B030BDF0B583B015001E00CF
:1016E00000276A46544BD3E9004CC2E9004C089CE1
:1016F000E21C8DF802208DF80310010089B2090A5E
:101700008DF804108DF8050007E06846FFB2C15D52
:1017100089B24A48FFF73BFE7F1CFFB2062FF4D187
:10172000370006E0FFB2E95D89B24448FFF72FFEBB
:101730007F1CFFB2F6B2E4B2A0198742F2DBF7BD1C
:10174000F0B583B015001E0000276A463C4BD3E974
:10175000004CC2E9004C089CA21C8DF802208DF8B8
:1017600003108DF8040007E06846FFB2C15D89B23E
:101770003248FFF70CFE7F1CFFB2052FF4D1370073
:1017800006E0FFB2E95D89B22C48FFF700FE7F1C3E
:10179000FFB2F6B2E4B2A0198742F2DBF7BD00B5A2
:1017A00083B00021ADF804108DF8050002200090F0
:1017B000002301AA80210320FFF7C2FF07BD1CB54B
:1017C000204800788DF804000A24012000900023AE
:1017D00001AA81212020FFF7B3FF164890F860008E
:1017E000002814D12000441EC0B200280FD00A20C7
:1017F000FFF7E7FBE4B2012CEFD100200D4981F89F
:10180000600000200B4981F87F00202008E00020C4
:10181000084981F860000020064981F87F00002017
:1018200016BD0000F838000818390008260F000817
:10183000F43A0008980A0020DC3A00080038014019
:10184000E43A00084A1D000813B5040001A801F09D
:1018500045F80100486900F26C70486120002C22B4
:1018600000F0D6FB16BD0FB480B50798A0F26C70DF
:10187000079002A801F040F802BC5DF814FB10B517
:101880008CB0040001F0C1F801006846FFF7DCFFEE
:10189000200069462C2200F0BBFB0CB010BD10B537
:1018A000040001F0D6F8200001F0B9F801F0D1F8F9
:1018B00010BD0FB400B587B008A984B068462C22CB
:1018C00000F0A6FB0FBCFFF7CEFFFFF7E8FF07B065
:1018D0005DF814FB80B54FF4C06000F05BFF03209F
:1018E0008DF8000001208DF8010000208DF8020025
:1018F00001208DF80300684600F051FF01BD80B55E
:1019000001215FF0C05000F095FD012001F0D8F8F2
:1019100001F0DCF8012000F001FD412000F09EFD07
:101920000028FAD04FF4807000F00DFD012000F087
:1019300010FD01F093F801F08CF801F08AF847F6F9
:10194000FF7001F078F801F084F801BD10B592B095
:101950002C21002207AC200001F0C0F8FFF7CFFFD8
:10196000FFF72DFF002876D13E4890F86700102140
:101970003C4A92F86720102392FBF3F20A2303FB00
:10198000020290FBF1F001FB102010F5FA600C90C0
:10199000344890F868001021324A92F868201023E9
:1019A00092FBF3F20A2303FB020290FBF1F001FB2E
:1019B00010200B902B4890F869001021294A92F8CA
:1019C0006920102392FBF3F20A2303FB020290FB2F
:1019D000F1F001FB10200A90224890F86B001021D2
:1019E000204A92F86B20102392FBF3F20A2303FBA8
:1019F000020290FBF1F001FB10200990194890F8C9
:101A00006C001021174A92F86C20102392FBF3F21D
:101A10000A2303FB020290FBF1F001FB1020089067
:101A2000104890F86D0010210E4A92F86D20102396
:101A300092FBF3F20A2303FB020290FBF1F001FB9D
:101A40001020079007A984B068462C2200F0E0FA25
:101A50000FBCFFF72EFFFFF73DFF00F01EFD12B099
:101A600010BD0000980A002080B5012001F002F8A6
:101A7000002802D0012001F00FF801BD10B5044686
:101A8000044801F05EF800210170034801F059F8A4
:101A9000046010BDA0010020A4010020F8B5344F5F
:101AA000384601F04EF80446381D01F04AF8054664
:101AB00007F1080001F045F8064607F10C0001F0B7
:101AC00040F823782B492C4A002B40D12B6802FB8D
:101AD00003132B60082702FB03132B6002FB031385
:101AE0002B6002FB03132B6002FB03132B6002FB32
:101AF00003132B6002FB03132B6002FB03132B6009
:101B00000346D5F800C002FB0C1CC5F800C043F822
:101B100004CB7F1ED5F800C002FB0C1CC5F800C02A
:101B200043F804CBD5F800C002FB0C1CC5F800C07C
:101B300043F804CBD5F800C002FB0C1CC5F800C06C
:101B400043F804CBDDD1C36F3360012323702B68CE
:101B500002FB03112960317801F01F0150F82120A8
:101B600032602A6840F82120306820F04040F2BD01
:101B7000A00100205FF36E3C0D661900010040F1EA
:101B80000780F446404200F003F851F000416047FE
:101B900009D0B0FA80F18840C91CC1F584610905FB
:101BA00001EBD02140057047B0B581EA030C0CF081
:101BB000004C40F2FF7515EA11541DBF15EA13578A
:101BC000AC42AF4239E0E41923EA455343F48013B1
:101BD000C90241F0004141EA505EC7021100A7FB73
:101BE000020200284FF00000EEFB01204FF0000140
:101BF000E3FB072118BF42F00102401800214941D0
:101C0000E3FB0E01A4F580640F0302D252004041B1
:101C1000494154F101046CDD470872F1004250F172
:101C2000000051EB0451A1F580115CBF41EA0C01A9
:101C3000B0BD4CEA05510020B0BD05EA1357AC42D7
:101C400014BFAF4241E050EA410E1CBF52EA430EBE
:101C500002E061460020B0BD24423C441BD15FEA53
:101C6000070EF6D0090302BF01460020AEF1140EA4
:101C7000B1FA81F7AEEB070401FA07FE0C37C7F1A2
:101C8000200100FA07F7C8404EEA000E23EA455348
:101C900043F48013A2E733F00043B3FA83F704BFA1
:101CA000B2FA82FE77440B3FE41BB7F1200E2FBF40
:101CB00002FA0EF3BB40C7F1200E22FA0EFE38BF27
:101CC00043EA0E03BA40641C82E750EA410E14BF97
:101CD00052EA430E6FF000014FF4001717EB430F69
:101CE0008ABF194617EB410FB5E74CEA05510020B2
:101CF000B0BDD4F10104B4F120070FDAC4F120071C
:101D0000520828BF42F0010210FA07F501FA07F75E
:101D1000E1BF2A43E0403843E1400FE0352C98DC36
:101D2000C7F1200452EA400220FA07F218BF42F03D
:101D3000010231FA07F0A1400A43002172F100428A
:101D400050F1000051EB0C01B0BD07002DE9F0414E
:101D500040F2FF7581EA030C0CF0004C15EA1154B7
:101D60001DBF15EA1357AC42AF42E9E0BC41C1F3D5
:101D70001301C3F31303801A994143F4801304D26F
:101D8000641E4000494180185941C90241EA50513E
:101D9000B1FBF3F603FB1611A2FB0675D7EBC020CF
:101DA000A94102D2761E80185941C90241EA505118
:101DB000B1FBF3FE03FB1E11A2FB0E75D7EBC02097
:101DC000A94103D2AEF1010E80185941890241EABE
:101DD0009051760546EA8E2EB1FBF3F603FB161101
:101DE000A2FB0675D7EB8020A94102D2761E80188F
:101DF0005941C90241EA50514EEA060EB1FBF3F6D1
:101E000003FB1611A2FB0675D7EBC020A94102D235
:101E1000761E80185941C90241EA5051B1FBF3F7CF
:101E200003FB1711A2FB0735D3EBC020A94167F1D3
:101E300000070CBF004247F0010766F3D5274FEAC1
:101E40001E31B80814F5806414DDBD0775F1004239
:101E500050EB0E5051EB045111F5801F5CBF41EA6D
:101E60000C01BDE8F0814CF07F6141F0E0410020C1
:101E7000BDE8F081BD076D0840EA0E5041F48011C5
:101E8000D4F10104B4F120060ADAC4F120060200FC
:101E9000E04001FA06F3E1401843B24015430EE07A
:101EA000342C14DCC6F1200445EA40056D0820FA04
:101EB00006F2154321FA06F0A1400D43002175F109
:101EC000004250F1000051EB0C01BDE8F081002010
:101ED0005FEA0C01BDE8F081CFB992185B41B3FA1B
:101EE00083F704BFB2FA82F6BF190B3FB7F12006A1
:101EF0002FBF02FA06F3BB40C7F1200622FA06F60E
:101F000038BF3343BA401CB1E419641E2FE77F4247
:101F100031F00041B1FA81F404BFB0FA80F6A4199F
:101F20000B3CB4F120062FBF00FA06F1A140C4F12A
:101F3000200620FA06F638BF3143A0403C1B16E7C6
:101F4000AC421ABF05EA1357AF4214E050EA41060B
:101F50001CBF52EA4306BFE750EA410730466146DC
:101F60001CBF41EA0551BDE8F08152EA430C08BFAD
:101F7000C143BDE8F08100204FF4001616EB410F7D
:101F800098BF16EB430F08BF16EB410F24BFC143A8
:101F900005E016EB430F0CBF61464CEA0551BDE866
:101FA000F0810000F446400D40EAC120490006D20D
:101FB00000F00EF8004248BF6FF00040604700F0AC
:101FC00007F84FF0004188428CBF08464042604706
:101FD00040F00040490DA1F58061491C05D4D1F1C4
:101FE0001F0154BFC840C01770474FF00000704732
:101FF00062B38B0708D0521E11F8013B00F8013B79
:1020000000F024808B07F6D1830740F0208000BFCA
:10201000103A07D330B4B1E83810103AA0E83810BD
:10202000F9D230BC530724BFB1E80810A0E808106B
:1020300044BF51F8043B40F8043BD20724BF31F8B9
:10204000022B20F8022B44BF0B7803707047083A2C
:1020500007D3B1E80810083A40F8043B40F804CB35
:10206000F7D25307E4E7000038B50400002506E086
:10207000EDB2615D89B26A48FFF789F96D1CEDB276
:10208000605D0028F4D131BD2DE9F04182B0002619
:1020900000241A258DF800506D46002636E0614F69
:1020A000D2B2F6B212EB860CDFF87CE1DBB25FF065
:1020B000090808FB03F8C644F6B2B6449EF803E0EC
:1020C0001EF1300E5FF010089EFBF8FE1EF1300E80
:1020D00007F80CE0544FDBB25FF0090C0CFB03FC7B
:1020E0006744F6B23744FF7830375FF0100CDFF802
:1020F00034E1D2B2F6B212EB8608C64497FBFCF884
:102100000CFB187730378EF80170761CF6B2062E6D
:10211000C5DB00262FE0434AC9B2F6B211EB8607B1
:10212000DFF804C1DBB25FF0090E0EFB03FEF444DE
:10213000F6B21CF806C05FF0100E9CFBFEFC1CF112
:10214000300C02F807C0384ADBB2092707FB03F757
:102150003A44F6B2925D1027DFF8C8C0C9B2F6B2B1
:1021600011EB860EF44492FBF7FE07FB1E22303281
:102170008CF80120761CF6B2022ECCDB002609E09A
:10218000F6B200EB06018978284AF6B202EB860225
:102190001173761CF6B20C2EF2DB2448FFF764FFB5
:1021A0004FF4FA70FEF70DFF1E48FFF75DFF2800A1
:1021B000FFF75AFF194890F8200000280FD0174861
:1021C000164991F83F100844407F4F2807D1134823
:1021D000124991F83F100844807F4B2811D04FF4EA
:1021E0007A70FEF7EEFE641CE4B20A2CE2DB0020FB
:1021F0000A4981F820000020084981F83F000120A9
:1022000008E00020054981F820000020034981F8FA
:102210003F000020BDE8F68100000000980A002081
:102220000050004000000020D8090020F4000020E9
:102230002DE9FC4107000C0000255FF0000820009C
:1022400000F080FC0600FD208DF8000000208DF8D5
:102250000100F01C8DF8020001208DF80300380108
:1022600050F001008DF804005FF000080CE06846B3
:1022700010F808004540684610F8081089B2234855
:10228000FFF785F818F10108B8F1050FEFD35FF0FB
:1022900000080AE014F80800454014F8081089B254
:1022A0001A48FFF774F818F10108F6B2B045F1D3F7
:1022B000EDB2290089B21548FFF769F8BDE8F3814E
:1022C0001FB50400684612491022FFF7A1FE11480D
:1022D000E4B2092101FB04F1405C8DF800000D48D7
:1022E000E4B2092101FB04F1084440788DF80100B3
:1022F000E4B2002C04D069460020FFF799FF03E008
:1023000005490020FFF794FF1FBD0000004C00406E
:10231000503A0008D8090020C43A00080021644A55
:1023200011700021624A1170C0B2012802D0042845
:1023300004D007E001205E49087003E005205C49F5
:102340000870FFE770475A49096808435849086010
:102350007047C0B257490860704700210021002231
:1023600000215249096811F00C01002904D0042908
:1023700005D0082906D021E04F49016020E04E49F0
:1023800001601DE04949096811F47011474A12685B
:1023900012F48032890C891C002A03D1474A514328
:1023A00001600AE0414A1268920303D5434A51434F
:1023B000016002E0404A5143016001E03E49016092
:1023C0003A49096811F0F00109093D4A515C026877
:1023D000CA4042603549096811F4E061090A384A87
:1023E000515C4268CA4082603049096811F460510A
:1023F000C90A334A515C4268CA40C2602B49096825
:1024000011F44041890B2F4A515CC268B2FBF1F1D3
:1024100001617047C9B2002905D02B4909680843FA
:102420002949086005E02849096831EA0000264981
:1024300008607047C9B2002905D0244909680843DB
:102440002249086005E02149096831EA00001F4976
:1024500008607047C0B21E49086070470021002222
:1024600000210100C9B24909C9B2012902D10E49AE
:102470000A6806E0022902D10D490A6801E01549FF
:102480000A68C0B210F01F01CA40D00701D501216F
:1024900000E000210800C0B270470E48006850F00C
:1024A00080700C4908607047001002400410024020
:1024B000201002403C04424200127A0000093D0014
:1024C0004001002050010020181002401C10024062
:1024D000400442422410024070B400220025002330
:1024E000002600240025CA7812F00F02CB78DB0604
:1024F00001D58B781A430B781B0621D00468002382
:1025000006E0CD78482D02D101259D4005615B1C78
:10251000082B14D2012515FA03F60D883540B54273
:10252000F5D19E000F25B540AC4312FA06F52C43B9
:10253000CD78282DE5D101259D404561E7E7046070
:102540000B88FF2B26DD4468002320E0012513F1D2
:10255000080615FA06F60D883540B54216D19E00DC
:102560000F25B540AC4312FA06F52C43CD78282D43
:1025700004D1012513F10806B5404561CD78482DF9
:1025800004D1012513F10806B54005615B1C082B39
:10259000DCD3446070BC7047D2B2002A02D089B24A
:1025A000016101E089B241617047000070B586B0F9
:1025B00004000D0000200020002100210026A88931
:1025C00000282600208A4CF6FF710840E98808435D
:1025D0002082A0894EF6F3110840A9882A89114368
:1025E0006A8911430843A081A08A4FF6FF41084041
:1025F000A9890843A0826846FFF7AFFE1A488642C1
:1026000001D1039800E00298A189090406D5192197
:10261000484329684900B0FBF1F105E0192148431E
:1026200029688900B0FBF1F16420B1FBF0F00001F2
:102630000209642303FB1211A289120408D5C90000
:1026400032316422B1FBF2F111F00701084307E0D7
:10265000090132316422B1FBF2F111F00F0108439C
:10266000208106B070BD000000380140C9B20029C9
:1026700004D0818951F40051818104E081894DF6B3
:10268000FF7211408181704730B400230024002480
:10269000002589B240F66A13994205000800C0B2CD
:1026A0004309DBB289B211F01F04012010FA04F4CF
:1026B000012B01D10C3504E0022B01D1103500E0D3
:1026C0001435D2B2002A03D028682043286002E0E3
:1026D0002868A043286030BC7047C905C90D8180B7
:1026E00070478088C005C00D7047002289B2B1F5DF
:1026F000007F0088084201D0012200E00022100083
:10270000C0B2704789B28A0589B2C9430180704757
:1027100010B4002200230022002289B240F66A127F
:1027200091420A00D2B25209D2B289B211F01F030B
:10273000012414FA03F3012A02D18289134006E02E
:10274000022A02D1028A134001E0828A134089B230
:102750000A0A92B2012111FA02F200880240002B0B
:1027600003D0002A01D0012200E000221000C0B2F4
:1027700010BC70470022002289B240F66A129142D2
:1027800089B20A0A012111FA02F292B2D143018000
:102790007047000019490843194908607047002133
:1027A00000220F23C17800291DD01549096811F4B2
:1027B000E061D1F5E061090AD1F10402CB40417832
:1027C000914082781A40114309010E4A0378D1548E
:1027D0000121027812F01F0291400B4A007840114B
:1027E00042F8201009E00121027812F01F02914006
:1027F000064A0078401142F8201070470000FA05A0
:102800000CED00E000E400E000E100E080E100E029
:102810000EB400B582B003A9009102466B460121B7
:10282000034878440A3000F0B4F906BC5DF810FBA8
:102830004D110000F0B5264E83B0304600F081F90E
:102840000446244D284600F07CF9006808B900F0E1
:102850003BFA284600F075F90546301D00F071F985
:1028600006462868216881422BD0007810B900F014
:102870004FFA28606A462868022100F04EFA07469F
:1028800000230A2201A900F069FA30600199009A38
:10289000C91B914205D100F2135040F6272188420E
:1028A00001D30020306030680B4980FB01214911C1
:1028B00001EBD17101EB8102C0EBC20030602868EE
:1028C00020603068A0EB0011880003B0F0BD00006C
:1028D000980100202C0200201F85EB5110B5044602
:1028E000FFF7A8FF2168BDE8104041184FF0FF3204
:1028F000002000F094BA0000F8B50446364920697B
:1029000080FB01214A1002EBD27202EB4201B0EBD4
:10291000810144BF0C31521E002A51D56069C2F1B9
:102920000043984254DB60691518284600F05AFAB3
:1029300040F26D1101FB0500A16862682368274D14
:10294000D4F80CE082FB0565234E81FB0676244F0C
:102950001544B61083FB07C7AD1206EBD6761F44AD
:10296000704405EBD5753F14301806EB460607EBAF
:10297000D7772818A1EBC6013818DFF868E0DFF830
:1029800068C04FF46166704471430CFB00104FF453
:10299000B46101FB1521C1EB011200EB8200181894
:1029A0000CFB1705226A2946204600F038FA206AF7
:1029B0000128A8BFA5F56165FFF73CFF281AF2BD05
:1029C000012AB0DB6FF000406369801A9842AADAEE
:1029D0004FF0FF30F2BD00BFABAAAA2AB7600BB61A
:1029E00007452EC2209CFFFF805101002F48008820
:1029F00050F010002D49088070472C4800884FF691
:102A0000EF71084029490880704700202848008855
:102A10002849098889B280B250EA0140704710B550
:102A20000400FFF7E3FF200C2249088020480480BF
:102A3000FFF7E3FF10BD10B50400FFF7D7FF200C30
:102A400010F00F001C4908801C480480FFF7D5FFD8
:102A500010BD164800888006FBD5704713480088D3
:102A60004FF6F771084011490880104800880007A8
:102A7000FBD5704700210D49098801400A4A128898
:102A800092B2024204D0C9B2002901D0012100E073
:102A900000210800C0B270470449098831EA0000EB
:102AA00002490880704700000028004004280040C8
:102AB0001C28004018280040082800400C2800402E
:102AC000C0B201490860704720000E4280B5012065
:102AD000FFF7C0FC0020FFF7BDFC01BD62F30F2231
:102AE00062F31F42401810F0030308D0C91A1FD325
:102AF000DB0748BF00F8012D28BF20F8022D130086
:102B000030B414461546103928BF20E93C00FAD8E5
:102B1000490728BF20E90C0048BF40F8042D890070
:102B200028BF20F8022D48BF00F8012D30BC7047A7
:102B3000C91818BF00F8012DCB0728BF00F8012DD8
:102B40007047704700F10103810704D010F8011BA2
:102B500089B18107FAD10268B2F10131914311F0D4
:102B6000803F04BF50F8042FF6E710F8011B11B1A5
:102B700010F8011BFBE7C01A704770B504461E0031
:102B80000846154604D015F8011BA047761EFAD159
:102B900070BD2DE9F04683B08246894614461F4633
:102BA00007E00123224649465046FFF7E6FF8146EB
:102BB000641C2078010003D1002003B0BDE8F0863A
:102BC0002528EED16078A41C2528014618D0582865
:102BD0005CD063280ED0642818BF692814D06F28F1
:102BE00054D0702858D073285DD0752818BF782825
:102BF0004CD0DEE73868386050F8041B3860C9B242
:102C00004846D0478146D4E73868386050F8045BBE
:102C10003860002D03D52D214846D04781466420D9
:102C20006F2808BF082205D040F02001782914BF82
:102C30000A2210220B216428AC4603D1002D48BF84
:102C4000CCF1000CBCFBF2F502FB15CC0CF130060C
:102C50005FFA86FC4B1EBCF13A0FA4BFA0F15106EF
:102C6000B4440DF803C019465FEA050C01D00129F0
:102C7000E8DA4846D1F10B090DEB0105C2D015F891
:102C8000011BD047B9F10109F9D1BBE739683960B7
:102C900051F8045B3960C3E73868386050F8045B6A
:102CA00038607820BCE73868386050F8045B3860DA
:102CB0002846FFF747FF06004846A3D015F8011B3A
:102CC000D047761EFAD19DE738B5DFF83840204668
:102CD000FFF737FF006848B92046FFF732FF0FF2D1
:102CE0002C050560201DFFF72CFF056031BD10B5D8
:102CF0000446DFF81400FFF724FF00EB84000068AF
:102D000010BD00002C020020340200200000000052
:102D10000FF20400704700003A00F8B504460D4673
:102D20002078002816460CBF002714F8017B01E02C
:102D30006D1E441C3946204600F032F918B9204671
:102D4000FFF700FF2044012D03DA001B306020460E
:102D5000F2BD01780029EBD13160F2BD2DE9F843D5
:102D600080460E0091461D4608BF6E46474600E06D
:102D70007F1C387800F01FF90028F9D138782D2809
:102D800016BF2B2817F8014B2B242B464A463146F9
:102D9000384600F01BF931688F4208BFC6F8008042
:102DA0003168884514D120B92D2C16D1B0F1004FCF
:102DB00015D900F0D5F9222101600DB1012028605C
:102DC0002D2C14BF6FF000404FF00040BDE8F2839F
:102DD0002B2CE9D1B0F1004FEBD2BDE8F283404299
:102DE000BDE8F283012804DB421E531002EB93720C
:102DF00005E010F1030F04DA421000EB927292101A
:102E000000E0002210F0030F00D110B90FF278108B
:102E100001E00FF25C1030F91100801870472DE9C5
:102E2000F84F04464A484018154600901CB94948D6
:102E3000FFF787FE044625624FF461650098DFF8CE
:102E400018A10FF244160FF228176FF0020840F293
:102E50006D1902E0009800F56160404ADFF800C19A
:102E6000A0FB0221090C0A46531C83FB0CEC9C447A
:102E70004FEAAC0C0CEBDC7CCCEBCC0CA3EB0C03E6
:102E8000A361384B82FB03C313441B1203EBD373C0
:102E900000E05B1E012B06DBA3F1010C4FEA6C0E78
:102EA0000CEB9E7C05E0434506DA4FEA630C03EB2E
:102EB0009C7C4FEAAC0C01E04FF0000C13F0030FC8
:102EC00002D10BB1BE4600E0B646BEF900E0F444C4
:102ED00009FB03CC6245DCDBA2EB0C0213F0030F11
:102EE0006361E26100D10BB9334600E03B464FF02D
:102EF0000C0C03F1180E3EF902BD5A45ACF1010C61
:102F0000F9DBC4F810C00AFB110033F91C30D21AE7
:102F1000521CE260144AA0FB0221C90AA16005FB11
:102F20001100124AA0FB02214909C1EB01126160A4
:102F3000A0EB82002060206A002805D5204600F022
:102F400015F90128206285DA2046BDE8F28F0000DD
:102F5000807EAA83A00200208051010007452EC276
:102F600093244992B1F98CB3C5B3A291898888881A
:102F700000001F003C005B0079009800B600D500FF
:102F8000F400120131014F0100001F003B005A0004
:102F900078009700B500D400F300110130014E0114
:102FA0000278C9B28A421AB11CBF10F8012FF9E7A2
:102FB00018BF0020704710B504460120FFF797FEA8
:102FC0002046BDE8104000F075B900002DE9F04F33
:102FD00085B004461E000D4690461CBF00203060A0
:102FE000A14601E009F1010999F80000FFF7E3FFAC
:102FF0000028F7D199F800002D2816BF2B2819F8C2
:10300000017B2B27B8F1000F55D4B8F1010F52D036
:10301000B8F1250F4FDAB8F1010F0DDBB8F1100F41
:1030200004BF99F80000302802BF99F8010040F071
:103030002000782814D10EE099F80000302818BF3D
:103040004FF00A080CD199F8010040F020007828D0
:1030500004D14FF0100809F1020901E04FF008080F
:10306000CDF8109001E009F1010999F8000030282D
:10307000F9D00FF29C0B4FF0000ACDF80C908DF8B0
:1030800008B00AE09DF80810CDF804A0401AC0B2BC
:10309000009008FB0A0A09F1010999F8000000F004
:1030A00013F901464246584600F018F90028E9D1C4
:1030B0000498484503D105B12C60002025E00FF2AB
:1030C0007801039811F80810A9EB0000401A14D4F5
:1030D000012808DA0098BAEB000004D30199B0FB8C
:1030E000F8F0884209D000F03BF8222101600EB1CF
:1030F000012030604FF0FF3A03E02D2F08BFCAF1E6
:10310000000A0DB1C5F80090504605B0BDE8F08F3B
:10311000303132333435363738396162636465664D
:103120006768696A6B6C6D6E6F70717273747576B7
:103130007778797A0000000000002115110E0D0C3F
:103140000B0B0A0A090909090908080808080808F0
:103150000707070707070707070707070700000014
:103160000148FFF7EEBC0000CC0200202DE9F84337
:1031700004464B484B4FFFF7E4FC80464A48FFF7B4
:10318000E0FC05463846FFF7DCFC006808B9FFF7AD
:103190009BFD3846FFF7D5FC06464448FFF7D1FCB7
:1031A0000746D8F800103868814220D0007878B9F6
:1031B0003068007810B9FFF7ABFD30606A463068C0
:1031C0000321FFF7AAFD3860017809B1401E38607D
:1031D000386800F0C5F8060008BF4FF0FF305CD03B
:1031E000286800F057F92E603868C8F80000002100
:1031F0006069FFF7F7FD8046E169A0682D6801EB83
:10320000410200EBC207606940F26D1101FB0080D2
:10321000401C274980FB01210144891001EBD17139
:10322000C1EBC101401A4FF0000900F10E0600E0A9
:103230006D1D2878FF282FD0606929798842F7DB37
:10324000E978FFF7CFFDA978A0EB080008182978E6
:103250000A0011D03218521A154B82FB03C31344D3
:103260009B1003EBD373C3EBC303D21A1CBFC01D67
:10327000801A0829B8BFC01F00EB4001687800EB36
:10328000C100874208DB2879697A88420CBF89F03F
:1032900001094FF00009CBE74846BDE8F28300BFC3
:1032A000D00200202C020020D40200203002002096
:1032B00093244992A0F10901052901D3202801D1C5
:1032C000012070470020704710B504460120FFF729
:1032D0000EFD2046BDE8104000F01CB9C9B28307BE
:1032E00006D0521E22D310F8013B9942F7D11FE0BD
:1032F000083A13D302F1040241EA012141EA0141F3
:1033000050F8043B121F21BF4B40A3F1013C2CEAB3
:10331000030C1CF0803FF3D0C9B2001F083210F834
:10332000013B521E28BF91EA030FF8D818BF0120B5
:10333000401E70470022491E0CD40378303B0A2BF4
:1033400008D202EB820310F8012B02EB4302303A61
:10335000491EF2D5002958BF4FF0FF321046704782
:103360002DE9F041054615F8018BB8F1000F00F08A
:103370008D802846022601E0401C761C4146FFF75E
:103380000FFE0028F8D106EB860000F0C9F8060011
:103390007CD00027344600E0641D287828280BD113
:1033A0000421681CFFF7C6FFA0F26C77002F6AD4D7
:1033B0006879292867D1AD1D277102212846FFF7BA
:1033C000B9FF401EE070AD1C2846002101220378A1
:1033D000303B0A2B08D201EB810310F8011B01EBF3
:1033E00043013039521EF2D5002A54BFFE20481E38
:1033F000A07015F8020F30380A2813D22846002191
:1034000001220378303B0A2B08D201EB810310F82C
:10341000011B01EB43013039521EF2D5002A03D4BF
:10342000FF2101E0002100E0AD1C6170E0780C2874
:10343000BFBFA07864286078642824DA28782B2815
:1034400018BF2D2802D00020207010E06878A0F16D
:103450003001072917D230280CBF072030382070E0
:1034600028782B2802D12078C01D2070AD1C287828
:1034700028B9FF20607167723046BDE8F08115F809
:10348000010B404588D0304600F004F80020BDE82C
:10349000F081000000B9704738B5A0F10804206839
:1034A000082833D310F0070F30D1C046C046184863
:1034B000416809B18C4203D26160446017E019464B
:1034C0004B680BB1A342FAD30B68CD18AC421BD3A7
:1034D000A54204D12268D2180A600C4607E04A6867
:1034E0001AB1236823449A420ED362604C6061682B
:1034F00051B12268A3188B4206D1002303600868EB
:103500008018206048686060C046C04631BD000039
:10351000AC0B0020A0F141011A2938BF20307047C0
:1035200070B5054605F10F00C408C046C046E4006A
:10353000A54232D2082C04D2082402E00830FFF75A
:10354000A9FF2248026811000CD1011D0A6802B3CC
:103550001368A34238BF111DF8D310E01D68A542BF
:103560000DD2191D0B68002BF8D11268011D00E067
:10357000191D0B6893420CD01D68A542F8D361B1A8
:103580000D682A68A2F10803A3420AD26A680A6099
:103590000FE000F01DF80028D0D1C046C046002042
:1035A00070BD2B190B60121B6E685E600B681A6091
:1035B0002C60096800291DBF4A68002A091D0021E6
:1035C0000160C046C04605F1080070BDAC0B00208C
:1035D0000749086808B1002070470648C008C000C5
:1035E00008600549C908C900091A0160704700BF91
:1035F000B40B0020DF060020D808002080B54E481C
:10360000006850F001004C4908604C4800684C4983
:1036100008404A490860484800684A490840464905
:1036200008604548006830F48020434908604348FA
:10363000006830F4FE00414908605FF41F00424911
:10364000086000F005F85FF000604049086001BDC7
:1036500080B500F001F801BD82B00020019000208B
:1036600000903548006850F4803033490860324893
:10367000006810F4003000900198401C0190009800
:10368000002803D10198B0F5A06FF0D12A48006856
:10369000800302D50120009001E0002000900098F6
:1036A000012847D12A48006850F0100028490860D6
:1036B0002748006880088000254908602448006881
:1036C00050F00200224908601C4800681B4908604D
:1036D0001A480068194908601848006850F480606A
:1036E000164908601548006830F47C1013490860DA
:1036F0001248006850F4E810104908600E4800684D
:1037000050F080700C4908600B4800688001FBD5C0
:103710000A48006880088000084908600748006877
:1037200050F00200054908600448006810F00C00E1
:103730000828F9D102B0704700100240041002407E
:103740000000FFF8FFFFF6FE0810024008ED00E061
:1037500000200240F0B4016844688368014401EB32
:103760005402E40748BF4B44914202D1F0BC0C30F4
:10377000704711F8015B15F0030604BF11F8014B07
:10378000E61C2C090F2C07D111F8014B0F3403E074
:1037900011F8017B03F8017B761EF9D1002CE3D0F0
:1037A000AD0811F8016B05F00305032D08BF11F8F2
:1037B000015B06EB05256D42A41C1D44D4D015F811
:1037C000016B03F8016B641EF9D1CDE77047FEE78A
:1037D000FEE7FEE7FEE770477047704780B5144884
:1037E0000088401C124908801148008842F2E451C8
:1037F000884205DA01224FF400510E48FEF7CCFE54
:103800000B48008842F2E451401AB0F5967F05D883
:1038100000224FF400510748FEF7BEFE044800881E
:1038200042F21171884202DB00200149088001BD8B
:10383000BA0B00200010014019E050F8041BCB0720
:1038400044BFA9F101035918121F0023042A41F8AB
:10385000043BF9D25FEA827C0B4604D54FF0000CA2
:10386000A1F800C09B1CD10744BF0021197050F87B
:10387000042B002AE1D1704780B5FCF7F3FCFCF77C
:1038800067FE0A20FDF79DFBF9E710B50400210053
:10389000C9B289B20548FEF720FF40210348FEF770
:1038A00024FF0028F9D0200010BD00000044004093
:1038B00010B5074979441831064C7C44163404E0AD
:1038C0000A68081D114488470146A142F8D110BD7D
:1038D000080000002400000061FFFFFFE802000074
:1038E000D8080020000000006DFEFFFFE402000089
:1038F00064020000000000202D2D2D2D2D2D2D2DDA
:103900002D2DC7E1B4A54C4F474FBAF3BDF8C8EB16
:10391000CFB5CDB32D2D00002D2D2D2D2D2D2020FB
:103920002020204C6F6164696E6720202020202DAC
:103930002D2D2D2D2D00000000F00BF8002801D0BA
:10394000FFF7B6FF0020C046C046FFF795FF00F026
:1039500002F80120704700F001B800000746384621
:1039600000F002F8FBE7000080B5C046C046024AFE
:1039700011001820ABBEFBE72600020038B5044654
:103980000D46284600F006F8A84218BF002420463D
:1039900032BD00000149FFF778BF00BF5801002089
:1039A0002D2D2D2DBBB6D3ADCAB9D3C32D2D2D2DA5
:1039B000000000002D2DD6C7C4DCCBCDB2CDCFB5D5
:1039C000CDB32D2D00000000D7B4CCACA3BAC7EB0B
:1039D000C9A8C3E8B6A9B5A500000000C7EBCAB9DD
:1039E000D3C3A3BA5F5FBAC5B2CDB9F1000000007E
:1039F0002D2D2D2D2D2D2D2D2D2D2D2D2D2D2D0024
:103A0000BFC9D3C3A3BA2020B8F6B2CDB9F1000024
:103A1000B6CCD0C5B7A2CBCDD6D02E2E2E2E000040
:103A2000B6CCD0C5D2D1B7A2CBCDB3C9B9A6000010
:103A3000B6CCD0C5D2D1B7A2CBCDCAA7B0DC0000DE
:103A40002D2DCEDEBFC9D3C3B2CDB9F12D2D2000AF
:103A50006E6EBAC5CFE4C3C5D2D1B4F2BFAA00001E
:103A60000148804701480047FD350008D13A000869
:103A7000B7A2CBCDD6D02E2E2E2E00002D2DCEDEF1
:103A8000B7A8B7A2CBCD0000B7A2CBCDD2D1CDEA9B
:103A9000B3C90000C7EBC9A8C3E8CCF5C2EB00006E
:103AA000CEDEBFC9D3C3B2CDB9F10000B5C7C2BD28
:103AB000B3C9B9A600000000C3DCC2EBB4EDCEF37D
:103AC00000000000C3DCC2EBB4EDCEF30000000048
:103AD000C046C046C046C046FFF72EFF5AA50000AC
:103AE000000000005AA50000000000006C6F616437
:103AF000696E6700A55A0100FFF7FEBFFFF7FEBF22
:103B0000FFF7FEBFFFF7FEBFFFF7FEBFFFF7FEBFE9
:103B1000FFF7FEBFFFF7FEBFFFF7FEBFFFF7FEBFD9
:103B2000FFF7FEBFFFF7FEBFFFF7FEBFFFF7FEBFC9
:103B3000FFF7FEBFFFF7FEBFFFF7FEBFFFF7FEBFB9
:103B4000FFF7FEBFFFF7FEBFFFF7FEBFFFF7FEBFA9
:103B5000FFF7FEBFFFF7FEBFFFF7FEBFFFF7FEBF99
:103B6000FFF7FEBFFFF7FEBFFFF7FEBFFFF7FEBF89
:103B7000FFF7FEBFFFF7FEBFFFF7FEBFFFF7FEBF79
:103B8000FFF7FEBFFFF7FEBFFFF7FEBFFFF7FEBF69
:103B9000FFF7FEBFFFF7FEBFFFF7FEBFFFF7FEBF59
:103BA000FFF7FEBFFFF7FEBFFFF7FEBFFFF7FEBF49
:103BB000FFF7FEBFFFF7FEBFFFF7FEBFFFF7FEBF39
:103BC000FFF7FEBFFFF7FEBFFFF7FEBFFFF7FEBF29
:103BD00010123330313038334443353330353931D6
:103BE00034443930303114101731354241323542C6
:103BF000393846463043354330463445384336320B
:103C00003841251003363533353605100D45353727
:103C10003238384642443542383135440F500D4130
:103C20003042353932373542363630303330042081
:103C30001731374543343636374138304644363706
:103C4000444337363834303035380420063533466F
:103C5000373939313018300234453244702001335D
:103C6000443614600635424336373830312CE1048F
:103C7000212C100A34454335354635333635453524
:103C80006C2232701104624180100135323474109C
:103C9000043039363534381213320001500741549C
:103CA0002B434D47533D222D523504923604523159
:103CB0004D523249400336220D0A00011005010021
:103CC000020003000408200105000614200201027E
:103CD0000304041013060708090204060800A24A98
:103CE0000402040101180B00206804921804100358
:103CF000950100207C04F21A0001F3FF010001F19C
:023D00001101AF
:0400000508003AD1E4
:00000001FF
