:020000040800F2
:1000000070130020010100085D0100085F01000875
:1000100063010008670100086B0100080000000090
:100020000000000000000000000000006F01000858
:10003000710100080000000073010008750100084C
:100040001B0100081B0100081B010008133D0008EC
:100050001B0100081B0100081B0100081B01000810
:100060001B0100081B0100081B0100081B01000800
:100070001B0100081B0100081B0100081B010008F0
:100080001B0100081B0100081B0100081B010008E0
:100090001B0100081B0100081B0100081B010008D0
:1000A0001B0100081B0100081B0100081B010008C0
:1000B0001B0100081B0100081B0100081B010008B0
:1000C0001B0100081B0100081B0100081B010008A0
:1000D0001B010008D322000855230008AF230008A5
:1000E0001B0100081B0100081B010008DFF80CD0F1
:1000F00004F078F80048004725010008701300203C
:100100000648804706480047FEE7FEE7FEE7FEE7B1
:10011000FEE7FEE7FEE7FEE7FEE7FEE7571E000804
:10012000ED00000800F0DEF904E000F044FE0A20D3
:1001300003F088FAF9E770B504460D46E1B20648C7
:1001400001F052FD00BF4021034801F0BBFD002833
:10015000F9D0204670BD000000440040704700BF49
:10016000FEE700BFFEE700BFFEE700BFFEE7704707
:100170007047704710B516480088401C1449088025
:100180000846008842F2E451884204DA0122510311
:10019000104801F074F80E48008842F2E451884299
:1001A0000BDB0B48008842F21071884205DC00220C
:1001B0004FF40051074801F062F80548008842F208
:1001C0001071884202DD00200149088010BD000046
:1001D000000000200010014038B5002418E0012084
:1001E00004EBC401FE4A114488700A2094FBF0F02D
:1001F000303004EBC40150540A2094FBF0F100FBB2
:100200001140303004EBC40111444870601CC4B28A
:10021000142CE4DDA02300225021F24803F05AFB05
:10022000002407E004F11000EE49095CEE48015596
:10023000601CC4B2062CF5DB002408E004F12000A9
:10024000E849095CE84809300155601CC4B20B2C30
:10025000F4DB002408E004F13000E249095CE248E4
:10026000801D0155601CC4B2032CF4DB002408E09F
:1002700004F14000DB49095CDB4814300155601C87
:10028000C4B2042CF4DB002405E0D648005DD74955
:100290000855601CC4B2FF2CF7DB0B200023D24AA8
:1002A000093282210090802002F02AF903200023E5
:1002B000CD4A921D82210090902002F021F9042065
:1002C0000023C94A143282210090D02002F018F98C
:1002D00038BD10B502F0E9FC0F23C5A200210120B2
:1002E00002F0CBFB1023C6A20021022002F0C5FBC6
:1002F0001023C8A20021032002F0BFFB0E23CAA2D4
:100300000021042002F0B9FB10BD10B58CB0002410
:100310002022C9A104A803F06FFDCFA000680390BC
:10032000CEA00068029002F07EFD044303F0AFF817
:10033000044303F067FB0443012002F056F9044331
:1003400003F009FB044302F0CFF90443002C77D0FB
:1003500004F0800010B131208DF8100004F040004E
:1003600010B131208DF8110004F0200010B13120BF
:100370008DF8120004F0100010B131208DF8130038
:1003800004F0080010B131208DF8140004F00400CE
:1003900010B131208DF8150004F0020010B13120A9
:1003A0008DF8160004F0010010B131208DF817000F
:1003B0001E20002304AA82210090184602F0A0F813
:1003C000082304AA0021042002F057FB0120002387
:1003D00003AA80210090022002F0C6F8642003F0F6
:1003E00031F90120002303AA80210090022002F0AD
:1003F000BBF8642003F026F90120002303AA802122
:100400000090022002F0B0F8642003F01BF90120F4
:10041000002303AA80210090022002F0A5F86420A6
:1004200003F010F90120002303AA8021009002208C
:1004300002F09AF840F2DC5003F004F90AE0FFE71A
:1004400002F086FC0120002302AA802100900220F5
:1004500002F08AF80CB010BD01460A2091FBF0F0C2
:1004600030307F4A10700A2091FBF0F200FB12102E
:1004700030307B4A5070104670477CB51524002000
:1004800001900BE004EBC40055490844807828B182
:100490009DF80700401CC0B28DF80700601EC0B276
:1004A000041EEFD19DF8070018B101204C49887057
:1004B00004E000204A4988708DF807009DF8070085
:1004C000FFF7CAFF054602232A460321042002F053
:1004D000D4FA0220034601AA82210090502002F0A3
:1004E0000FF87CBD10B502F05AFC03F0C1F802F021
:1004F0008FF903F06BF801F02FFD01F072FD01F0B0
:10050000B3FD01F0F6FD01F039FE01F07EFE40F68C
:10051000B83003F097F8002002F067F803F035FBDD
:1005200002F0C9FBFFF7F1FEFFF756FEFFF7D1FE21
:10053000FFF7A3FF10BD2A48807818B90020494A68
:1005400010707047012121E04648007808441428C3
:1005500002DB0020434A107042480078084400EB58
:10056000C0001F4A1044807870B100203D4A1278C4
:100570000A4402EBC2021A4B1A44907039480078C0
:100580000844384A107003E0481CC1B21429DBDD6E
:1005900000BF34480078D4E72DE9FF5F0546002608
:1005A00000244FF0200998E000246DE02E490988CE
:1005B000081903F0C5FB03F0B9FB834603F028FDDF
:1005C00007460022294B03F042FC0022284BCDE9CC
:1005D000000103F0AEFCCDE9020103F02AFD49E081
:1005E000DC010020400E0020C4010020410D00204D
:1005F0002D2D2D2D2D2D2D2D2D2D2D2D2D2D2D0058
:10060000D7B4CCACA3BAC7EBC9A8C3E8B6A9B5A503
:1006100000000000C7EBCAB9D3C3A3BA5F5FBAC575
:10062000B2CDB9F100000000BFC9D3C3A3BA2020E6
:10063000B8F6B2CDB9F10000303030303030303063
:100640002D2DC7E1B4A54C4F474FBAF3BDF8C8EB09
:10065000CFB5CDB32D2D00000A0000003200000000
:1006600012000020140000200000002000002440A0
:100670000000E041824605EBC500FA4A1044C01C68
:1006800000F804A0601CC4B2062C8FDB012621E018
:100690004FF00109002415E006EBC600F1490844BB
:1006A000C01C015D05EBC500EE4A1044C01C005D96
:1006B000814205D1AE4203D04FEA49604FEA10694A
:1006C000601CC4B2062CE7DBB9F1200F00DB03E0AD
:1006D000701CC6B2142EDBDD00BFB9F1200FBFF6CF
:1006E00063AF012004B0BDE8F09F70B50346002160
:1006F00000220124012125E0012400220EE001EB6B
:10070000C100D84D2844C01C855CD01D185C303811
:10071000854201D16006040E501CC2B2062AEEDBEF
:10072000402C0DD101EBC100CE4D2844807838B962
:10073000012001EBC105CB4E3544A870084670BDC1
:10074000481CC1B21429D7DD0020F8E710B50246D5
:100750000021012300BF09E0C348445CC81D105CB0
:10076000844201D15806030E481CC1B20629F3DBAE
:10077000402B01D1012010BD0020FCE710B5002462
:1007800009E0B848C01C005D00F13001B74801F035
:100790008DFD601CC4B2062CF3DB0D21B34801F0C3
:1007A00085FD0A21B14801F081FD012010BD2DE930
:1007B000F04105460E461746002400BF0AE0AC484B
:1007C000E11D405C2855AA48405C3919A94A50549B
:1007D000601CC4B2B442F2DB00240AE000BFA549A9
:1007E000085DA022214603F04EF80028F7D0601CD7
:1007F000C4B2502CF2DBBDE8F08110B502460123F3
:1008000000210BE09848801D445C01F10F00105C52
:10081000844201D15806030E481CC1B20329F1DB02
:10082000082B01D0002010BD0120FCE710B50146C7
:100830000F23087830384C78303C204408B9012028
:1008400010BD002209E0885C2F2804DD885C3A286E
:1008500001DA581EC3B2501CC2B20F2AF3DB0BB12F
:100860000020EDE7487830380C78303C04EB840405
:1008700000EB44007C4C2C3CE468A04201D00020FA
:10088000DEE70120DCE770B594B07BA00068139030
:1008900000247AA000680D9079A30FCB09AD0FC595
:1008A0007BA30FCB05AD0FC57DA30FCB01AD0FC54E
:1008B000022000230DAA82210090702001F020FE6A
:1008C000022000230DAA82210090A02001F018FE32
:1008D00002200023764A82210090602001F010FE61
:1008E000092001F073FE6248613890F8660000F05C
:1008F0000F01002948D10011801E0D2844D2DFE8E5
:1009000000F04407FA434343E7E643E5E4E3B0007D
:100910005748FFF7EAFE0546F5B1C82002F092FEFF
:10092000284602F061FA02200023614A121D82214A
:100930000090602001F0E4FD2846FFF78DFD06469B
:1009400002200023324682210090702001F0D8FD61
:10095000284602F0E5FD17E04FF4FA7002F072FE4F
:10096000002002F0DDFD022000230DAA822100906C
:10097000702001F0C5FD022000234D4A921C822107
:100980000090602001F0BCFDA7E1002406E038489B
:10099000E11D405C0EA90855601CC4B2122CF6DBA8
:1009A0000EA8FFF743FF00285AD00EA8FFF725FF37
:1009B000002855D0FFF7BFFD0546002D3FD0C820C9
:1009C00002F040FE2846FFF7E7FD284602F00CFA49
:1009D00004200023364A083282210090602001F072
:1009E0008FFD2846FFF738FD0646022000233246D9
:1009F00082210090702001F083FD284602F090FDD6
:100A00000E20002309AA82210090A02001F078FD89
:100A100029460EA802F09EFB40B10E20002305AA35
:100A200082210090A02001F06BFD63E00E200023E6
:100A300001AA82210090A02001F062FD5AE04FF44B
:100A4000FA7002F0FFFD02231AA20421032002F033
:100A500014F80F2318A20021022002F00EF849E03A
:100A600038E00AE1DC010020C4010020004400401D
:100A7000220D0020410D00205A000000FFFF000061
:100A8000B6CCD0C5B7A2CBCDD6D02E2E2E2E000000
:100A9000B6CCD0C5D2D1B7A2CBCDB3C9B9A60000D0
:100AA000B6CCD0C5D2D1B7A2CBCDCAA7B0DC00009E
:100AB000020000205F5F00002D2DCEDEBFC9D3C332
:100AC000B2CDB9F12D2D2000C3E07AE065E050E011
:100AD0003CE010E04FF4FA7002F0B4FD0420002373
:100AE000D74A82210090602001F00AFDD5A10020A4
:100AF00002F074FCF1E04FF4967002F0A3FDD448CC
:100B0000FFF724FEA0B1D3A1002002F067FC022071
:100B10000023CB4A921D82210090602001F0F0FC5E
:100B20004FF4FA7002F08EFD0B2001F04FFD0CE047
:100B300002200023C24A121D82210090602001F091
:100B4000DFFCC7A1002002F049FCC6E04FF496701C
:100B500002F078FD20220B21C448FFF728FE022076
:100B60000023B74A083282210090602001F0C8FCBF
:100B7000B3E04FF4967002F065FD30220321BB48CC
:100B8000C01EFFF714FE02200023AD4A0832822166
:100B90000090602001F0B4FC9FE04FF4967002F0EA
:100BA00051FD10220621B1480938FFF700FE02204E
:100BB0000023A34A083282210090602001F0A0FCAB
:100BC0008BE04FF4967002F03DFDA148613890F83B
:100BD0006800302805D19E48613890F869003028B7
:100BE0000BD09B48613890F8680030280FD19848A6
:100BF000613890F86900FF2809D1012404E02046FB
:100C000002F0F2F8601CC4B2142CF8DD1DE090482C
:100C1000613890F86900FF2808D18D49613991F851
:100C20006810303988B202F0DFF80EE08849613987
:100C300091F86920303A91F86810303901EB810160
:100C400002EB410188B202F0CFF80B2001F0BEFCAC
:100C500043E04FF4967002F0F5FC402204218348F3
:100C60000B30FFF7A4FD02200023754A08328221D1
:100C70000090602001F044FC2FE04FF4967002F0E9
:100C8000E1FC7348613890F86900012806D0022819
:100C90000DD003281AD004281AD118E0012000230F
:100CA00013AA80210090EA2001F05EFC10E000BF52
:100CB0006F48006800F4E0606E490843001D6C490D
:100CC0000860BFF34F8F00BF00BFFEE700E000BF2A
:100CD00000BF0B2001F07AFC00BF00BFFFF7CDFB87
:100CE00014B070BD10B55A486038FFF79FFD00285A
:100CF0004DD0FFF720FC0446002C3AD00F23544A75
:100D0000603A0021012001F0B8FE0A23AFF28C22E4
:100D10000321022001F0B1FE2046FFF73DFC2046F2
:100D200002F062F804EBC400534942180223042184
:100D3000032001F0A2FE21464548603802F00AFA7D
:100D400030B10A234DA20321022001F096FE05E0F6
:100D50000A234DA20321022001F08FFE4FF496706A
:100D600002F070FC0A234BA20321022001F085FE51
:100D700017E00223AFF2C4220421032001F07DFE1C
:100D80000A2347A20321022001F077FE09E00F2386
:100D900046A20021012001F070FE4FF4487002F0DD
:100DA00051FCFFF76AFB0F23AFF2BC720021012058
:100DB00001F063FE10BD00B58BB02DE0684602F077
:100DC00079FE2C2269462948353803F015F8204869
:100DD0006138007828B100201D4961390870FFF79B
:100DE00081FF1B48613890F8600058B10021184815
:100DF000613880F87F1000201549613981F8600062
:100E0000FFF741FD1248613890F8200020B1002022
:100E10000F49613981F820000D48613800780028B9
:100E2000CCD10B48613890F820000028C6D1084882
:100E3000613890F860000028C0D10BB000BD000000
:100E400008000020B5A5BAC5D3D0CEF3000000003D
:100E5000220D0020B5C7C2BDB3C9B9A6000000006D
:100E6000C3DCC2EBB4EDCEF300000000CD010020E6
:100E70000CED00E00000FA05DC010020B7A2CBCDAC
:100E8000D2D1CDEAB3C900002D2DCEDEB7A8B7A2CE
:100E9000CBCD0000C7EBC9A8C3E8CCF5C2EB00007E
:100EA000CEDEBFC9D3C3B2CDB9F100002D2D2D2D9B
:100EB000B5A5BAC5D3D0CEF32D2D2D0031490143B0
:100EC000314A1160704770B5002100230F22C478A9
:100ED00004B32D4C246804F4E064C4F5E064210AF2
:100EE000C1F10403CA40447804FA03F18478144041
:100EF00021430901254C0678A155047804F01F050B
:100F00000124AC4005786D11AD0005F1E025C5F870
:100F1000004109E0047804F01F050124AC401C4D99
:100F20000678761145F8264070BD1A4A0A400243F9
:100F3000154B1B1F1A60704739B1134A121D1268F6
:100F40000243114B1B1D1A6006E00F4A121D126866
:100F500082430D4B1B1D1A607047042808D14FF0C7
:100F6000E021096941F004014FF0E022116107E03E
:100F70004FF0E021096921F004014FF0E0221161F6
:100F8000704700000000FA050CED00E000E400E00E
:100F900080E100E080FFFF1F10B5012000F014FC8D
:100FA000002000F011FC10BD2A4908607047294953
:100FB000091F08607047274984310860704701465F
:100FC0000020254A10884FF67F4210400843224AED
:100FD00010807047014600201F4A10884FF680722B
:100FE000104008431C4A1080704708B50022009248
:100FF000194A2C3A0092009A02440092009A116019
:1010000008BD08B501460020009013482C38009018
:101010000098084400900098008808BD0D489C3056
:101020000068C0B270470C480830008840F00100EA
:1010300009490831088070470648A0300068C0B2EE
:10104000704705480830008840F002000249083126
:101050000880704704860D422C6C004010B5044691
:10106000CC48844208D10121042000F093FB0021E8
:10107000042000F08FFB46E0C748844208D10121DC
:10108000082000F087FB0021082000F083FB3AE0F5
:10109000C248844208D10121102000F07BFB0021CE
:1010A000102000F077FB2EE0BD48844208D10121DA
:1010B000202000F06FFB0021202000F06BFB22E0DD
:1010C000B848844208D10121402000F063FB002190
:1010D000402000F05FFB16E0B348844208D10121B4
:1010E000802000F057FB0021802000F053FB0AE035
:1010F000AE48844207D10121801500F04BFB00214E
:10110000A01500F047FB10BD10B50121084600F006
:1011100041FB0021012000F03DFB10BD2DE9F04115
:10112000024600250026002000230024002791F815
:1011300003C00CF00F0591F803C00CF0100CBCF1CB
:10114000000F03D091F802C04CEA050591F800C0E9
:10115000BCF1000F31D0146800202BE04FF0010CDF
:101160000CFA00F3B1F800C00CEA03069E4220D14D
:1011700083004FF00F0C0CFA03F7BC4305FA03FC95
:101180004CEA040491F803C0BCF1280F06D14FF0DB
:10119000010C0CFA00FCC2F814C00AE091F803C07C
:1011A000BCF1480F05D14FF0010C0CFA00FCC2F85D
:1011B00010C0401C0828D1D31460B1F800C0BCF1A5
:1011C000FF0F34DD546800202EE000F1080C4FF0D2
:1011D000010808FA0CF3B1F800C00CEA03069E42BD
:1011E00021D183004FF00F0C0CFA03F7BC4305FA32
:1011F00003FC4CEA040491F803C0BCF1280F05D1AC
:1012000000F1080C08FA0CF8C2F8148091F803C039
:10121000BCF1480F07D100F1080C4FF0010808FAA3
:101220000CF8C2F81080401C0828CED35460BDE8EA
:10123000F0814FF6FF710180022181700421C1709D
:1012400070470246002093680B400BB1012000E07C
:10125000002070470146886880B27047024600202F
:10126000D3680B400BB1012000E00020704701461D
:10127000C86880B2704701617047416170470AB128
:10128000016100E041617047C16070474FF48032F6
:101290000A43826181618261826982697047024684
:1012A0000020434B18684FF68073184040EA021044
:1012B00008433F4B186070473E49C8617047F0B51E
:1012C0000A46002300240021002500F00046B6F164
:1012D000004F02D1364EF16901E0354E7168C0F31E
:1012E000034583B200F44016B6F5401F08D121F043
:1012F00070612F4E766826F070662D4F7E6012E08A
:1013000000F48016B6F5801F06D1032606FA05F410
:10131000A14341F0706106E0460D360103FA06F67E
:10132000B14341F0706122B1460D360103FA06F671
:10133000314300F00046B6F1004F02D11C4EF1617E
:1013400001E01B4E7160F0BD30B500228B071C0F11
:101350000F2303FA04F2164B08338C1053F8243091
:101360009343134C08348D1044F8253023468C10D9
:1013700053F824308C07240F00FA04F423430C4C58
:1013800008348D1044F8253030BD0A49DC3108603E
:101390007047000000080140000C014000100140AF
:1013A0000014014000180140001C014000200140D1
:1013B000000001400000204210B50121080700F0A4
:1013C000F6F900214FF0805000F0F1F910BD2A49E4
:1013D0000862704728490861704701460020274A83
:1013E000106820F0E0000843106070472249A031E7
:1013F0000860704710B502460020204B186820F0A6
:101400000300104318601E4B1B6843F004031C4C80
:101410002360012901D130BF00E020BF184B1B68B9
:1014200023F00403164C236010BD1448006840F0FC
:101430000400124908600846006840F00200086095
:101440000F48006840F004000D49086000BF00BF6D
:1014500030BF704701460020084A52680A400AB16E
:10146000012000E0002070470449096841EA80013A
:10147000024A11607047000000000E4200700040F8
:1014800010ED00E0DF48006840F00100DD49086031
:1014900008464068DC490840DA4948600846006868
:1014A000DA490840D74908600846006820F48020DF
:1014B00008600846406820F4FE0048604FF41F00B2
:1014C00088607047CF49096821F48031CD4A1160A6
:1014D0001146096821F480211160B0F5803F03D0E6
:1014E000B0F5802F0ED106E0C649096841F480317D
:1014F000C44A116007E0C349096841F4A021C14A08
:10150000116000E000BF00BF704710B50146002227
:10151000002300204A11012A02D1BA4C236806E0B8
:10152000022A02D1B74C236A01E0B64C636A01F08B
:101530001F02012494401C400CB1012000E0002057
:1015400010BD38B5002000900024002500BF3120D8
:10155000FFF7DBFF05460098401C00900098B0F5AF
:10156000A06F01D0002DF2D03120FFF7CEFF08B1DF
:10157000012400E00024204638BD01460020A14A95
:10158000106820F0F80040EAC10010607047A049E0
:1015900008607047024600209A4B586820F47C107F
:1015A00042EA01031843974B586070479849086610
:1015B000704701460020934A506820F0030008431A
:1015C000506070478F48406800F00C00704701463B
:1015D00000208C4A506820F0F000084350607047AB
:1015E00001460020874A506820F4E06008435060BC
:1015F000704701460020834A506820F4605040EA5A
:10160000C1005060704729B17E4A527A02437D4B37
:101610005A7204E07B4A527A82437A4B5A7270477C
:101620007B49D8310860704701460020754A5068F0
:1016300020F440400843506070470021714A203236
:101640001170704A82F82010012802D004280AD1B3
:1016500004E001216B4A2032117005E00521694A3E
:101660002032117000E000BF00BF70476949086078
:1016700070476449096A0143624A116270476549CB
:1016800044390860704730B500210022002400234F
:101690005C4D6D6805F00C0121B1042905D00829C5
:1016A00023D105E05C4D056022E05B4D05601FE045
:1016B000544D6D6805F47012524D6D6805F4803418
:1016C000022505EB92421CB9544D554305600BE0D1
:1016D0004C4D6D6805F400351DB1504D5543056006
:1016E00002E04D4D5543056002E04B4D056000BFE3
:1016F00000BF444D6D6805F0F0010909484D6B5C71
:101700000568DD4045603F4D6D6805F4E061090AFC
:10171000434D6B5C4568DD4085603A4D6D6805F46E
:101720006051C90A3E4D6B5C4568DD40C560354D72
:101730006D6805F44041890B3A4D6B5CC568B5FB9B
:10174000F3F5056130BD29B12E4A526902432D4B94
:101750005A6104E02B4A526982432A4B5A6170470E
:1017600029B1284A92690243264B9A6104E0254A2E
:1017700092698243234B9A61704729B1214AD26909
:101780000243204BDA6104E01E4AD26982431D4BBA
:10179000DA61704729B11B4AD2680243194BDA60FB
:1017A00004E0184AD2688243164BDA60704729B1C8
:1017B000144A12690243134B1A6104E0114A126978
:1017C0008243104B1A6170471249403908607047D4
:1017D0000F49C86470470B49C87170470948406A8F
:1017E00040F0807007494862704701460020054A72
:1017F00092680A400AB1012000E0002070470149C8
:1018000088727047001002400000FFF8FFFFF6FEEC
:10181000000042428004424200127A0000093D006A
:10182000150000202500002029B1504A12880243EB
:101830004E4B1A8004E04D4A128882434B4B1A806B
:1018400070474A48001D008840F010004749091DB4
:10185000088070474548001D00884FF6EF7108402A
:101860004249091D08807047002140481C3001880A
:10187000001F008841EA0040704700B50246FFF7AC
:10188000E0FF100C394918310880091D0A80FFF764
:10189000E1FF00BD00B50246FFF7D3FFC2F30340EE
:1018A000324908310880091D0A80FFF7D3FF00BDC7
:1018B00000B50246FFF7C5FF100C2C492031088007
:1018C000091D0A80FFF7C6FF00BD0020274910311F
:1018D00009880907080B254914310988084370470E
:1018E00000BF2248001D008800F020000028F8D02A
:1018F00070471E48001D00884FF6F77108401B49CD
:10190000091D088000BF1948001D008800F008006C
:101910000028F8D0704701460020144A121D128892
:101920000A400AB1012000E0002070470F49091D5C
:10193000098881430D4A121D11807047014600201D
:101940000A4A121D12880A40D0B2084A12880A4078
:1019500012B108B1012000E0002070470349091DC1
:1019600009888143014A121D1180704700280040F8
:1019700010B50446FB48844209D101218803FFF7D2
:1019800009FF00214FF48040FFF704FF32E0F648E2
:10199000844209D101214804FFF709FF00214FF4D7
:1019A0000030FFF704FF25E0F048844209D101210F
:1019B0008804FFF7FCFE00214FF48020FFF7F7FEBC
:1019C00018E0EB48844209D10121C804FFF7EFFE7B
:1019D00000214FF40020FFF7EAFE0BE0E5488442C7
:1019E00008D101210805FFF7E2FE00214FF4801025
:1019F000FFF7DDFE10BD2DE9F04786B005460E4627
:101A00000024A24600BFA1460027B08900B100BF54
:101A10002F462C8A4CF6FF700440F08804432C8239
:101A2000AC894EF6F3100440B088318908437189BF
:101A300008430443AC81AC8A4FF6FF400440B089B0
:101A40000443AC8201A8FFF71EFEC648874202D1BC
:101A5000DDF810A001E0DDF80CA0A88900F400403A
:101A600040B10AEBCA0000EB0A1031684900B0FB34
:101A7000F1F807E00AEBCA0000EB0A1031688900B0
:101A8000B0FBF1F86420B8FBF0F0040120096421F8
:101A900001FB1089A88900F4004040B1322000EB1E
:101AA000C900B0FBF1F000F00700044308E0322069
:101AB00000EB09106421B0FBF1F000F00F000443CB
:101AC0002C8106B0BDE8F0874FF41651016000216B
:101AD0008180C18001810C21418100218181704779
:101AE00010B502460020108A4FF2FF0318400B8801
:101AF0004C8823438C882343CC882343184310828B
:101B000010BD0021018041808180C180704721B1DA
:101B1000828942F40052828104E082894DF6FF738B
:101B20001A4082817047F0B5034600240026002544
:101B3000002040F66A17B94200D100BF1846C1F331
:101B4000421401F01F06012707FA06F5012C01D106
:101B50000C3004E0022C01D1103000E014301AB136
:101B600007682F43076002E00768AF430760F0BDD6
:101B70001AB1838A0B43838202E0838A8B43838278
:101B80007047028A4FF6F0731A400282028A0A43B3
:101B90000282704782894FF2FF731A4082818289E4
:101BA0000A438281704721B1828942F00202828118
:101BB00004E082894FF6FD731A4082817047028AE1
:101BC0004FF6DF731A400282028A0A43028270478C
:101BD00021B1028A42F48042028204E0028A4BF67A
:101BE000FF731A4002827047C1F308028280704777
:101BF00001468888C0F308007047818941F00101DF
:101C000081817047028BD2B20283028B42EA0122A9
:101C100002837047028B02F47F420283028B0A43E5
:101C20000283704721B1828A42F02002828204E05E
:101C3000828A4FF6DF731A408282704721B1828A0E
:101C400042F01002828204E0828A4FF6EF731A405B
:101C50008282704721B1828A42F00802828204E0C7
:101C6000828A4FF6F7731A408282704721B18289C7
:101C700042F40042828103E08289C2F30E02828133
:101C8000704721B1828A42F40062828204E0828A33
:101C90004FF2FF731A4082827047828A4FF6FB73BD
:101CA0001A408282828A0A438282704721B1828AE4
:101CB00042F00202828204E0828A4FF6FD731A40EB
:101CC0008282704702460020B1F5007F00D100BF3C
:101CD00013880B400BB1012000E00020704701F495
:101CE0000072B2F5007F00D100BFCA430280704786
:101CF00070B50246002400230025002040F66A1635
:101D0000B14200D100BFC1F3421501F01F0301260B
:101D100006FA03F3012D02D19689334006E0022D25
:101D200002D1168A334001E0968A33400C12012614
:101D300006FA04F41688344013B10CB1012000E017
:101D4000002070BD10B50022002340F66A14A142A5
:101D500000D100BF0A1201249440A3B2DC430480E6
:101D600010BD000000380140004400400048004021
:101D7000004C0040005000400CB500200190009045
:101D80006C48006840F480306A49086000BF6948C8
:101D9000006800F4003000900198401C0190009809
:101DA00018B90198B0F5A06FF1D16248006800F44D
:101DB000003010B10120009001E000200090009858
:101DC000012843D15C48006840F010005A4908607F
:101DD0000846006820F0030008600846006840F0EC
:101DE000020008605348406852494860084640680D
:101DF00048600846406840F4806048600846406893
:101E000020F47C1048600846406840F4E8104860C0
:101E10000846006840F08070086000BF45480068D0
:101E200000F000700028F9D04248406820F003001C
:101E3000404948600846406840F00200486000BFE2
:101E40003C48406800F00C000828F9D10CBD10B5E2
:101E5000FFF792FF10BD10B53648006840F0010052
:101E600034490860084640683449084031494860B0
:101E700008460068324908402E4908600846006854
:101E800020F4802008600846406820F4FE00486086
:101E90004FF41F008860FFF7DAFF4FF00060294918
:101EA000086010BD10B5002100200022214B5B68A6
:101EB00003F00C0121B1042906D0082928D107E03C
:101EC000214B224C236027E01F4B204C236023E052
:101ED000184B5B6803F47010164B5B6803F4803298
:101EE000022303EB904022B9194B4343174C236064
:101EF0000DE0104B5B6803F4003323B1144B4343F4
:101F0000124C236003E0104B4343104C236003E06A
:101F10000D4B0E4C236000BF00BF064B5B68C3F344
:101F200003130C4CE15C094B1B68CB40074C23604E
:101F300010BD000000100240002002400000FFF829
:101F4000FFFFF6FE08ED00E000127A002C000020F2
:101F500000093D003000002000B585B001210420BB
:101F6000FFF7FEFB01218803FFF7FAFB4FF4007037
:101F7000ADF8100018208DF8130003208DF8120022
:101F800004A9FE48FFF7CAF84FF48060ADF81000CE
:101F900004208DF8130003208DF8120004A9F748DF
:101FA000FFF7BCF84FF4614000900020ADF804004A
:101FB000ADF80600ADF80800ADF80C000C20ADF847
:101FC0000A006946EE48FFF716FD012240F225514E
:101FD000EB48FFF7A8FD0121E948FFF798FD05B0A0
:101FE00000BD00B585B001210420FFF7B9FB012138
:101FF0004804FFF7C2FB0420ADF8100018208DF84C
:10200000130003208DF8120004A9DC48FFF786F8BE
:102010000820ADF8100004208DF8130003208DF87F
:10202000120004A9D548FFF779F84FF41650009034
:102030000020ADF80400ADF80600ADF80800ADF8DA
:102040000C000C20ADF80A006946CE48FFF7D3FC1F
:10205000012240F22551CB48FFF765FD0121C94817
:10206000FFF755FD05B000BD00B585B00121082082
:10207000FFF776FB01218804FFF77FFB4FF48060B8
:10208000ADF8100018208DF8130003208DF8120011
:1020900004A9BD48FFF742F84FF40060ADF8100006
:1020A00004208DF8130003208DF8120004A9B6480F
:1020B000FFF734F84FF4165000900020ADF80400FC
:1020C000ADF80600ADF80800ADF80C000C20ADF836
:1020D0000A006946AD48FFF78EFC012240F2255107
:1020E000AA48FFF720FD0121A848FFF710FD05B021
:1020F00000BD00B585B001211020FFF731FB0121A3
:10210000C804FFF73AFB4FF48060ADF810001820C8
:102110008DF8130003208DF8120004A99C48FEF7E7
:10212000FDFF4FF40060ADF8100004208DF813009F
:1021300003208DF8120004A99548FEF7EFFF4FF435
:10214000165000900020ADF80400ADF80600ADF880
:102150000800ADF80C000C20ADF80A0069468D4867
:10216000FFF749FC012240F225518A48FFF7DBFCCA
:1021700001218848FFF7CBFC05B000BD00B585B054
:1021800001211020FFF7ECFA01212020FFF7E8FAE7
:1021900001210805FFF7F1FA4FF48050ADF8100067
:1021A00018208DF8130003208DF8120004A9784838
:1021B000FEF7B4FF0420ADF810008DF813000320E3
:1021C0008DF8120004A97448FEF7A8FF4FF41650CA
:1021D00000900020ADF80400ADF80600ADF808004E
:1021E000ADF80C000C20ADF80A0069466B48FFF70B
:1021F00002FC012240F225516848FFF794FC0121BE
:102200006648FFF784FC05B000BD08B54FF4E060F8
:10221000FEF754FE25208DF8000001208DF8010006
:1022200000208DF8020001208DF803006846FEF7BB
:102230004AFE26208DF8000001208DF801000020C4
:102240008DF8020001208DF803006846FEF73BFE82
:1022500027208DF8000001208DF8010000208DF866
:10226000020001208DF803006846FEF72CFE3420A2
:102270008DF8000001208DF8010000208DF802008B
:1022800001208DF803006846FEF71DFE35208DF80D
:10229000000001208DF8010000208DF802000120CF
:1022A0008DF803006846FEF70EFE08BD70B50446C3
:1022B0000D4629462046FFF797FC00BF40212046E7
:1022C000FFF700FD0128F9D140212046FFF707FD67
:1022D00070BD10B540F225512948FFF709FD98B3AC
:1022E0002748FFF785FCC1B22D4890F87F2090F871
:1022F0007F00401CC3B22A4880F87F30613081548F
:10230000613890F87F0002281EDD254890F87F1084
:1023100090F86300C01C814204DA214890F87F00E5
:102320001E2811DB1E4890F861005A2808D11C486D
:1023300090F86200A52803D10120194981F86000B6
:102340000021174880F87F1040F225510C48FFF714
:10235000F9FC10BD10B540F225510A48FFF7C8FC42
:1023600038B10848001D0088C4B221460DA001F014
:1023700085FF40F22551034816E0000000080140A7
:102380000038014000440040000C0140004800407B
:1023900000100140004C004000140140005000407B
:1023A000C10C002025630000FFF7CCFC10BD10B568
:1023B00040F225514E48FFF79BFC68B34C48FFF7AD
:1023C00017FCC1B24B48C27FC07F401C494BD87735
:1023D000581C8154401EC07F401E591C085C0A28AE
:1023E00008D1481EC07F102804D10120491E087062
:1023F0000020C8773F48C07F801E3E49491C085CCA
:10240000032802D10120491E08703A48C07F1E28C7
:1024100002DB00203749C87740F225513448FFF7E6
:1024200091FC10BD10B540F225513348FFF760FC18
:10243000F0B13148FFF7DCFBC1B22E4890F85F20C5
:1024400041308154413890F85F104130405C00F0D9
:102450004000402803D10120264981F8400025484A
:1024600090F83F001E2803DB0021224880F83F102F
:1024700040F225512048FFF765FC10BD10B540F231
:1024800025511E48FFF734FC60B31C48FFF7B0FB32
:10249000C1B2184890F83F2090F83F00401CC3B2EA
:1024A000144880F83F3021308154213890F83F1093
:1024B000891E2130405C0D280BD10E4890F83F104A
:1024C000491E2130405C0A2803D10120094981F8C6
:1024D0002000084890F83F001E2803DB0021054833
:1024E00080F83F1040F225510448FFF72BFC10BD47
:1024F00000480040C10C0020004C0040005000404B
:102500002DE9FC4705460F4690461E46DDF828900B
:1025100000248D4903C9CDE9000109F10300C0B2CF
:102520008DF802008DF8037028128DF80400E8B2CF
:102530008DF8050007E02046621CD4B21DF800109B
:102540008248FFF7B3FE062CF5D1344606E018F8B2
:1025500004107E48FFF7AAFE601CC4B206EB090017
:10256000A042F4DCBDE8FC872DE9FC4706460F4697
:1025700090461D46DDF8289000247349083103C9B0
:10258000CDE9000109F10200C0B28DF802008DF81A
:102590000370F0B28DF8040007E02046621CD4B24C
:1025A0001DF800106948FFF781FE052CF5D12C4677
:1025B00006E018F804106548FFF778FE601CC4B206
:1025C00005EB0900A042F4DCBDE8FC871CB504461D
:1025D000002001908DF805400220002301AA8021EF
:1025E00000900320FFF7C0FF1CBD30B593B0044638
:1025F000202257A10BA801F0FFFB20225CA103A819
:1026000001F0FAFB62A00068029062A000680190ED
:10261000002514B1012C60D113E00220002302AA8E
:10262000802100901846FFF79FFF0020FFF7CEFFA4
:102630001E20002303AA822100901846FFF760FFA6
:102640004BE00220002302AA822100901846FFF7E7
:1026500057FF0220002301AA822100901846FFF7AD
:102660004FFF15E00120022301AA832100900020E2
:10267000FFF746FFC82000F0E5FF681CC5B20A2D31
:1026800006DB0020444981F86000082013B030BD0B
:10269000414890F860000128E4D13F4890F8670075
:1026A0000128DFD13C4890F86800A528DAD13A48E3
:1026B00090F869005A28D5D10220002302AA82216D
:1026C00000901846FFF71CFF1E2000230BAA822152
:1026D00000901846FFF714FF00BF00BF00202E49EE
:1026E00081F8600000BFD1E71CB52CA00068019004
:1026F0000A240120002301AA812100902020FFF755
:1027000033FF0EE00A2000F09DFF012C09D10020CC
:10271000214981F8600000211F4880F87F102020A7
:102720001CBD1D4890F8600020B9201EA4F10101D5
:10273000CCB2E7D10020184981F86000002116488A
:1027400080F87F100020EBE790430008003801403C
:102750002D2D2D2D2D2D2D2D2D2DC7E1B4A54C4F1B
:10276000474FBAF3BDF8C8EBCFB5CDB32D2D000060
:102770002D2D2D2D2D2D20202020204C6F616469C2
:102780006E6720202020202D2D2D2D2D2D000000C6
:10279000FFFF0000A55A0100C10C00200700000047
:1027A00035E0FE48006840F02000FC4908601E202B
:1027B00000F048FFF948006840F48070F74908606D
:1027C0001E2000F03FFFF548006840F40070F34918
:1027D00008601E2000F036FFF048006820F020005E
:1027E000EE4908601E2000F02DFFEC48006820F440
:1027F0008070EA4908601E2000F024FFE748006866
:1028000020F40070E54908601E2000F01BFFC8E7B7
:1028100008B501210820FEF7A3FF4FF44870ADF87A
:10282000000010208DF8030003208DF80200694697
:10283000DA480C38FEF772FC08BD70B5044644F067
:10284000F805D648006820F40070D44908601420C8
:1028500000F0EAFED148006840F02000CF4908604F
:10286000002625E005F0800030B1CC48006840F437
:102870008070CA49086005E0C848006820F480708C
:10288000C6490860142000F0CFFEC448006840F438
:102890000070C2490860142000F0C6FEBF480068FE
:1028A00020F40070BD4908606806050E701CC6B2B1
:1028B000082ED7DB142000F0B7FEB848006820F4DB
:1028C0000070B6490860142000F0AEFE70BD2DE91E
:1028D000F04104460D4604F0F006F02141EA4501BE
:1028E000C8B2FFF7AAFF4FF0000839E0AB48006814
:1028F00020F40070A9490860142000F095FE00271C
:1029000025E006F0800030B1A448006840F48070F3
:10291000A249086005E0A148006820F480709F4942
:102920000860142000F080FE9C48006840F40070AD
:102930009A490860142000F077FE9848006820F457
:102940000070964908607006060E781CC7B2082F02
:10295000D7DBF02000EA041608F1010000F0FF08C0
:10296000B8F1020FC2DB142000F05EFE8B48006855
:1029700020F4807089490860142000F055FE8748D3
:10298000006820F4007085490860142000F04CFEB7
:102990008248006820F0200080490860142000F080
:1029A00043FEBDE8F08170B505460C46012D06D00A
:1029B000022D0BD0032D10D0042D1CD114E004F1F6
:1029C0008001C8B20021FFF782FF1BE004F19001F3
:1029D000C8B20021FFF77BFF14E004F18801C8B200
:1029E0000021FFF774FF0DE004F19801C8B2002147
:1029F000FFF76DFF06E004F18001C8B20021FFF788
:102A000066FF00BF00BF70BD70B5054600213420D1
:102A1000FFF75DFF00210220FFF759FF0021302062
:102A2000FFF755FF00214020FFF751FF00240DE084
:102A300015F814000121FFF74AFF012101EB4401C1
:102A4000685C0121FFF743FF601CC4B2402CEFDB40
:102A500070BD2DE9F04106460F4614461D46394625
:102A60003046FFF7A0FF01212046FFF730FF01218C
:102A70002846FFF72CFFBDE8F0812DE9F04106461E
:102A80000F4614461D4639463046FFF78CFF04E0DA
:102A900020780121FFF71BFF641C281EA5F101010E
:102AA000CDB2F5D1BDE8F0812DE9F0470746884663
:102AB00016461C46DDF8209041463846FFF773FF66
:102AC000254605E0705D0121FFF701FF681CC5B2D6
:102AD00004EB0900A842F5DCBDE8F0872DE9FF4FC3
:102AE00081B08046894692460E9E0F98002859D0A4
:102AF000B8F1010F09D0B8F1020F0AD0B8F1030FF5
:102B00000BD0B8F1040F10D10BE009F18000C7B26F
:102B10000CE009F19000C7B208E009F18800C7B2E3
:102B200004E009F19800C7B200E000BF00BF002137
:102B30003420FFF7CCFE00213620FFF7C8FE002529
:102B400029E07919C8B20021FFF7C1FE00218020D9
:102B5000FFF7BDFE002407E00AFB0541705C012180
:102B6000FFF7B5FE601CC4B25445F5DB00200090B1
:102B70000CE004996A1800990AFB0211705C0121AB
:102B8000FFF7A5FE0098401CC0B200900098504589
:102B9000EFDB681CC5B20498854201E00C0C0140D3
:102BA000CFDB7BE0B8F1010F06D0B8F1020F06D001
:102BB000B8F1030F09D105E04FF0800B06E04FF0AC
:102BC000800B03E04FF0880B00E000BF00BF0BEB71
:102BD0000900C7B200213420FFF779FE002136201A
:102BE000FFF775FEB8F1010F02D0B8F1030F1AD14B
:102BF000002416E004F18001C8B20021FFF767FE4F
:102C000000213846FFF763FE002506E016F8010BA9
:102C10000121FFF75CFE681CC5B2022DF6DB601CCB
:102C2000C4B2202CE6DBB8F1020F37D1002416E045
:102C300004F19001C8B20021FFF749FE0021384697
:102C4000FFF745FE002506E016F8010B0121FFF70E
:102C50003EFE681CC5B2022DF6DB601CC4B2102C0F
:102C6000E6DB002418E004F18801C8B20021FFF778
:102C70002EFE07F10801C8B20021FFF728FE00254B
:102C800006E016F8010B0121FFF721FE681CC5B212
:102C9000022DF6DB601CC4B2102CE4DB00213620D0
:102CA000FFF715FE05B0BDE8F08F10B5002101203B
:102CB000FFF70DFE10BD00B58DB0142218A108A8B5
:102CC00001F09AF814221BA103A801F095F81EA1A7
:102CD00003C9CDE9010100213020FFF7F8FD0021F3
:102CE0000C20FFF7F4FD00210120FFF7F0FD00218B
:102CF0000620FFF7ECFD102308AA00210120FFF7B2
:102D0000BCFE102303AA00210320FFF7B6FE072311
:102D100001AA00210420FFF7B0FE0DB000BD0000A5
:102D20002D2D2D2DBBB6D3ADCAB9D3C32D2D2D2D31
:102D3000000000002D2DD6C7C4DCCBCDB2CDCFB561
:102D4000CDB32D2D000000006C6F6164696E6700CB
:102D500008B501211020FEF703FD4FF40050ADF837
:102D6000000010208DF8030003208DF80200694652
:102D70000148FEF7D3F908BD0010014000F0100132
:102D800021B94FF60F71084040F020001D49C96875
:102D90004FF6C072114001431A4AD160704708B51E
:102DA00001211020FEF7DCFC3F20ADF800001020D0
:102DB0008DF8030003208DF8020069461148FEF7E4
:102DC000ADF91F20FFF7DAFF08BD10B5002408E0B9
:102DD0002046FFF7D3FF4FF4967000F033FC601CE1
:102DE00084B2182CF4DB10BD10B50446611E88B205
:102DF000FFF7C4FF4FF4967000F024FC1F20FFF78C
:102E0000BDFF10BD0010014070B50446002506E06E
:102E100028466A1CD5B2215CFB48FFF747FA605D83
:102E20000028F5D170BD10B500240020F74981F8C5
:102E300020000021F54880F83F10F5A0FFF7E4FFDF
:102E4000322000F0FFFBF2A0FFF7DEFF2CE0EF489E
:102E500090F82000B8B1ED4890F83F10091F2130DC
:102E6000405C642807D1E94890F83F10C91E213022
:102E7000405C792807D00020E44981F82000002137
:102E8000E24880F83F10C82000F0DCFB601CC4B2B0
:102E9000642C09DB0020DD4981F820000021DB489B
:102EA00080F83F10012010BDD84890F8200000287D
:102EB000CDD0D64890F83F10091F2130405C6428DF
:102EC000C5D1D24890F83F10C91E2130405C792806
:102ED000BDD100240020CD4981F820000021CB483D
:102EE00080F83F1013E0CEA0FFF78EFFC82000F05F
:102EF000A9FB601CC4B20A2C09DB0020C34981F87D
:102F000020000021C14880F83F100120CBE7BF48D6
:102F100090F820000028E6D0BC4890F83F10091F28
:102F20002130405C4F28DED1B84890F83F10C91ED0
:102F30002130405C4B28D6D100240020B34981F8D1
:102F400020000021B14880F83F1013E0B6A0FFF741
:102F50005BFFC82000F076FB601CC4B20A2C09DBC2
:102F60000020AA4981F820000021A84880F83F10DD
:102F7000012098E7A54890F820000028E6D0A34853
:102F800090F83F10091F2130405C4F28DED19F4848
:102F900090F83F10C91E2130405C4B28D6D1002448
:102FA00000209A4981F820000021984880F83F10BD
:102FB00013E0A1A0FFF728FFC82000F043FB601C2E
:102FC000C4B20A2C09DB0020904981F820000021BE
:102FD0008E4880F83F10012065E78C4890F820006B
:102FE0000028E6D0894890F83F10091F2130405C46
:102FF0004F28DED1854890F83F10C91E2130405C33
:103000004B28D6D100240020804981F820000021DF
:103010007E4880F83F1013E08CA0FFF7F5FEC82033
:1030200000F010FB601CC4B20A2C09DB00207749B9
:1030300081F820000021754880F83F10012032E718
:10304000724890F820000028E6D0704890F83F10B1
:10305000091F2130405C4F28DED16C4890F83F10AA
:10306000C91E2130405C4B28D6D10024002067497E
:1030700081F820000021654880F83F1013E079A016
:10308000FFF7C2FEC82000F0DDFA601CC4B20A2CB3
:1030900009DB00205D4981F8200000215B4880F8B1
:1030A0003F100120FFE6594890F820000028E6D0A4
:1030B000564890F83F10091F2130405C4F28DED160
:1030C000524890F83F10C91E2130405C4B28D6D1A1
:1030D000002400204D4981F8200000214B4880F851
:1030E0003F100020DFE62DE9F04705460E46174663
:1030F00000244FF00109284600F0A2FE00F0FF086E
:1031000000BF0AE0285D3919715C884203D14FEA9B
:1031100049604FEA1069601CC4B24445F2DB49FAC9
:1031200008F0022802D10120BDE8F0870020FBE76B
:103130002DE9F04106460C461746254605E0715D2F
:103140003148FFF7B3F8681CC5B2E019A842F6DCB5
:10315000BDE8F0812DE9F84306460D46002400271E
:103160001A200090E84600BF25E005EBC501404A63
:103170001144C91C095D01F13000C11700EB117148
:1031800009113031A200A6323A4B995405EBC50122
:10319000374A1144C91C095D01F13000C11700EB29
:1031A00011710911A0EB01113031CAB2A100A73190
:1031B0005A54601CC4B2052CD7DD00241FE005EB77
:1031C000C5012B4A1144085DC11700EB11710911AB
:1031D0003031A2007A32274B995405EBC501244ABD
:1031E0001144085DC11700EB11710911A0EB011129
:1031F0003031CAB2A1007B315A54601CC4B2012CD8
:10320000DDDD002452E0000000500040C10C002031
:1032100041542B4346554E3D312C310D0A000000E0
:1032200041540D0A0000000041542B434D47443DDA
:10323000312C340D0A00000041542B435343533DBD
:103240002255435332220D0A0000000041542B4303
:10325000534D503D31372C3136372C322C32350D11
:103260000A00000041542B434D47463D310D0A00F2
:10327000DC010020400000205449085DC11700EB2C
:10328000117109113031A2005A32514B99544F49F2
:10329000085DC11700EB11710911A0EB011130316C
:1032A000CAB2A1005B315A54601CC4B2022CE3DDE7
:1032B00000241BE045490E31085DC11700EB117178
:1032C00009113031A200CE32414B99543F490E31A1
:1032D000085DC11700EB11710911A0EB011130312C
:1032E000CAB2A100CF315A54601CC4B2012CE1DD36
:1032F00003241DE0611E354A0E32505CC11700EBFD
:10330000117109113031A200CE32314B9954611E36
:103310002E4A0E32505CC11700EB11710911A0EB5F
:1033200001113031CAB2A100CF315A54601CC4B26D
:10333000042CDFDD002407E0A01C315CA0000C3071
:10334000244A1154601CC4B20B2CF5DD2148FFF750
:103350005BFD4FF4FA7000F075F91D48FFF754FD5E
:103360004046FFF751FD12E04FF47A7000F06AF921
:10337000781CC7B20A2F0ADB0020174981F8200009
:103380000021154880F83F100020BDE8F88312485E
:1033900090F820000028E7D00F4890F83F10091F50
:1033A0002130405C4F28DFD10B4890F83F10C91EF8
:1033B0002130405C4B28D7D10020074981F82000FC
:1033C0000021054880F83F100120DEE7CA010020F7
:1033D0004000002031010020C10C00202DE9FC41FB
:1033E00007460D4600260024284600F029FD00F07F
:1033F000FF08FD208DF8000000208DF8010008F185
:103400000300C0B28DF8020001208DF8030040EAED
:103410000710C0B28DF8040000BF08E01DF80400DA
:1034200046401DF804104D48FEF740FF641C052C73
:10343000F4D3002406E0285D4640295D4748FEF7A6
:1034400035FF641C4445F6D331464448FEF72EFF51
:10345000BDE8FC8170B50546002405E0295D3F48C4
:10346000FEF724FF601CC4B2052CF7DB70BD08B565
:1034700001211020FEF774F98020ADF800004820EB
:103480008DF8030069463648FDF748FE08BD10B5C3
:1034900088B0202233A1684600F0AEFCFFF7E7FFBA
:1034A0003848FFF7D7FF642000F0CCF869460020C9
:1034B000FFF794FF642000F0C5F811E032A101206D
:1034C000FFF78CFFC82000F0BDF8601CC4B20A2CC6
:1034D00006DB00202D4981F84000022008B010BD15
:1034E0002A4890F84100412809D0284890F8410026
:1034F0004E2804D0254890F841004F28DED1002006
:10350000224981F840002248FFF7A4FF4FF496704B
:1035100000F098F81FA10120FFF760FF0020DDE711
:103520001FB5044621A30FCB8DE80F0004EBC400A8
:103530002249085C8DF8000004EBC4000844407880
:103540008DF8010024B169460020FFF747FF03E032
:103550001BA10020FFF742FF1FBD0000004C0040F0
:10356000001001405B645D5B7631305D5B6D325D08
:103570005B74365D5B6E325D5B79315D5B6F305DD8
:103580000000000083010020BBB60000C10C002039
:103590006A010020BBB6D3ADCAB9D3C3D6C7C4DC59
:1035A000CBCDB2CDCFB5CDB3000000006E6EBAC5A5
:1035B000CFE4C3C5D2D1B4F2BFAA0000DC01002021
:1035C000C3DCC2EBB4EDCEF30000000030B500BFA9
:1035D0002448006842F21072B0FBF2F1B1F1807F32
:1035E00001D301201DE021F07F40401E4FF0E0227A
:1035F000506150170F22002807DA13071D0E1A4BCF
:1036000000F00F04241F1D5503E013071C0E174B79
:103610001C5400BF00204FF0E02290610720106191
:1036200000200028D4D130BD06E00A2100BF0A1EC8
:10363000A1F10103D9B2FAD1021EA0F1010398B29F
:10364000F3D17047002109E0002201E0531C9AB237
:1036500042F645039A42F9DB4B1C99B28142F3DBF7
:10366000704700002C00002018ED00E000E400E0AE
:1036700008B501210820FEF773F8C020ADF800005E
:1036800003208DF8020014208DF803006946DA4803
:10369000FDF744FD08BD322001E0411EC8B20028FC
:1036A000FBD1704710B58020D3491031086040200D
:1036B0000860FFF7F0FFD0480830006808B9012023
:1036C00000E0002000F0800008B1002010BD802044
:1036D000C94914310860FFF7DEFFC74808300068A9
:1036E00000F0800008B10020F0E78020C2491431CA
:1036F0000860FFF7D0FF0120E8E710B54020BE4981
:1037000014310860FFF7C7FF8020BB4914310860FF
:10371000FFF7C1FF4020B84910310860FFF7BBFF39
:103720008020B54910310860FFF7B5FF10BD10B516
:103730004020B14914310860FFF7ADFF8020AE4949
:1037400014310860FFF7A7FF4020AB491031086033
:10375000FFF7A1FF4020A84914310860FFF79BFF45
:1037600010BD10B54020A44914310860FFF793FF45
:103770008020A14910310860FFF78DFF40209E494D
:1037800010310860FFF787FF40209B491431086023
:10379000FFF781FF10BD10B5402097491431086034
:1037A000FFF779FF8020944910310860FFF773FF1D
:1037B0004020914910310860FFF76DFF8E480830B6
:1037C000006800F0800028B140208B491431086067
:1037D000002010BD40208849143108600120F8E71E
:1037E00070B5044608251BE0402083491431086069
:1037F000FFF751FF04F0800020B180207E49103196
:10380000086003E080207C49143108606006040EE3
:10381000FFF741FF4020784910310860FFF73BFF78
:10382000281EA5F10101CDB2DED14020724914312C
:10383000086070BD70B50825002480206E491031E5
:10384000086015E06006040E40206B4914310860E2
:10385000FFF721FF4020684910310860FFF71BFF88
:1038600065480830006800F0800008B144F00104A9
:10387000281EA5F10101CDB2E4D140205E491431EA
:103880000860204670BD70B506460C461546FFF729
:1038900009FF08B9002070BD4FF6FE71294004F4FD
:1038A000E06241EAE210FFF79BFFFFF774FF18B9EF
:1038B000FFF723FF0020EEE7E0B2FFF791FFFFF7ED
:1038C0006AFF3046FFF78CFFFFF765FFFFF715FF34
:1038D0000120E0E72DE9F04106460C4615461F465B
:1038E000FFF7E0FE10B90020BDE8F0814FF6FE7151
:1038F000394005F4E06241EAE210FFF771FFFFF79B
:103900004AFF18B9FFF7F9FE0020EDE7E8B2FFF72C
:1039100067FFFFF740FFFFF7C5FE05F4E06147EAE8
:10392000E11141F00100FFF75BFFFFF734FF0CE00E
:10393000FFF780FF3070012C02D1FFF712FF01E08A
:10394000FFF7F5FE761C601E84B2002CF0D1FFF765
:10395000D4FE0120C8E710B55A2028490870A520D8
:10396000487000240AE000BF2449085DA0222146D7
:10397000FFF789FF0028F7D0601C84B2022CF2DB2D
:103980006420FFF75FFEA023002202211C48FFF7FE
:10399000A1FF1A4800781A490978884207D11748C8
:1039A000407817494978884201D1002010BD102085
:1039B000FCE710B5002403E010490C55601C84B2EC
:1039C000FF2CF9DD00240AE000BF0C49085DA022AD
:1039D0002146FFF758FF0028F7D0601C84B2FF2C67
:1039E000F2DD6420FFF72EFEA0230022FF21044811
:1039F000FFF770FF10BD0000000C0140410D0020DA
:103A0000400E002038B50024002517A00068009063
:103A100018E007E028466A1CD5B21DF800101348CC
:103A2000FEF744FC032DF5DDC820FFF70BFE002553
:103A3000601CC4B20A2C05DB00200D490870C87751
:103A4000042038BD0A4800780028E2D00848C07F2A
:103A5000C01E0749491C085C2428DAD10020491EF1
:103A60000870C87700BFECE702830382004800407B
:103A7000C10C002073B5054601A800F009FB0446FF
:103A8000606900F26C7060612C222146284600F0CB
:103A9000B3F97CBD0FB410B50798A0F26C70079015
:103AA00002A800F055F910BC5DF814FB10B5FDF745
:103AB000DBFE10BD30B58BB00446FDF7D5FE0546E4
:103AC00029466846FFF7D6FF2C226946204600F0BB
:103AD00093F90BB030BD10B50446FDF701FF204649
:103AE000FDF7CBFEFDF7FCFE10BD0FB410B588B09E
:103AF0001C220EA9684600F07FF90AA80FC8FFF73C
:103B0000C9FF0446FFF7E7FF08B010BC5DF814FBDF
:103B100008B54FF4C060FDF7D1F903208DF800001F
:103B200001208DF8010000208DF8020001208DF8A1
:103B300003006846FDF7C7F908BD10B501214FF035
:103B4000C050FDF71AFE0120FDF741FCFDF724FAF5
:103B50000120FDF772FD00BF4120FDF7D6FC0028D3
:103B6000FAD04FF48070FDF784FD0120FDF787FD4A
:103B7000FDF7BFFEFDF7B4FEFDF7B2FE47F6FF709E
:103B8000FDF788FEFDF7ACFE10BD00B593B02C210B
:103B900008A800F04AF9FFF7D0FFFEF7A5FD0028BE
:103BA0007DD1604A92F86700C21700EB12721211C1
:103BB000A0EB02135B4A92F86710CA1701EB12726E
:103BC000121102EB820203EB420202F5FA620D923D
:103BD000544A92F86800C21700EB12721211A0EB5F
:103BE0000213504A92F86810CA1701EB12721211B0
:103BF00002EB820203EB42020C924A4A92F86900FD
:103C0000C21700EB12721211A0EB0213454A92F890
:103C10006910CA1701EB1272121102EB820203EB58
:103C200042020B923F4A92F86B00C21700EB1272ED
:103C30001211A0EB02133B4A92F86B10CA1701EB6A
:103C40001272121102EB820203EB42020A92354A0F
:103C500092F86C00C21700EB12721211A0EB021363
:103C6000304A92F86C10CA1701EB1272121102EB73
:103C7000820203EB420209922A4A92F86D00C217AF
:103C800000EB12721211A0EB0213264A92F86D108B
:103C9000CA1701EB1272121102EB820200E00BE074
:103CA00003EB420208921C220CA9684600F0A4F81B
:103CB00008A80FC8FFF719FFFFF72AFFFDF78EFDD1
:103CC00013B000BD00B593B02C2108A800F0ADF8EA
:103CD0000120FDF77CFBFDF703FE40F616000D907A
:103CE00000200C900B900A90099008901C220CA9BF
:103CF000684600F081F808A80FC8FFF7F6FEFDF748
:103D0000EFFD0020FDF763FB074800F0B7FA13B0A2
:103D100000BD10B50120FDF711FE10B10120FDF727
:103D20001DFE10BDC10C0020B84300080649074A1B
:103D30000868504343F23902104408604008704755
:103D40000149086070470000900100206D4EC64197
:103D500038B5D0E90221491E01EB410102EBC10156
:103D60004268C1EB011102EB81010268C1EB011154
:103D700002EB8102D0E9043101EB410103EB810147
:103D80003023A1F5527191FBF3F4174D6C4302EB14
:103D9000C41291FBF3F403FB141100921A2902DB05
:103DA000124B1A4400920C2291FBF2F3104C634325
:103DB000009C04EBC313009391FBF2F302FB13117D
:103DC0000C4A08E0491E40F2A324535C6343009C64
:103DD00004EBC31300930029F4DC0146684600F0AD
:103DE0005DF9009838BD00003F0C0F0080510100C4
:103DF00067C203009D43000840EA01039B0703D00C
:103E000009E008C9121F08C0042AFAD203E011F819
:103E1000013B00F8013B521EF9D27047D2B201E0DB
:103E200000F8012B491EFBD270470022F6E710B5BF
:103E300013460A4604461946FFF7F0FF204610BD18
:103E4000421C10F8011B0029FBD1801A70472DE994
:103E5000FE4F81EA030404F0004421F00041009485
:103E60004FF0000B23F0004350EA01045ED052EA09
:103E700003045BD0C3F30A54C1F30A552C44A4F2E3
:103E8000F3340194A0FB0254C1F3130141F48011F7
:103E9000C3F3130343F4801301FB024400FB034EFE
:103EA000840A970A44EA815447EA8357A4FB0768C7
:103EB00002958D0A05FB07854FEA932C04FB0C54F1
:103EC0002705029D4FEA065847EA1637B5EB080565
:103ED0006EEB070C870E920E47EA811742EA8312B7
:103EE000A7FB0201B6EB0B0164EB00042B0D43EAC8
:103EF0000C335E1844EB1C50DA465146E7FB0201D6
:103F0000C5F313044FEA0B3343EA14534FEA043268
:103F1000019C43EA0603A4F10C040294009CCDE941
:103F200000B400F010F903B0BDE8F08F00200146A6
:103F3000F9E72DE9F04D81EA030404F0004B21F08C
:103F4000004514464FF0000A23F0004150EA0502F4
:103F500020D054EA01021DD0C5F30A570246C5F32A
:103F60001303C1F31300C1F30A5640F4801543F460
:103F70008013A7EB0608101BD64608F2FD3873EB3A
:103F8000050002D308F1010801E092185B41B8F185
:103F9000000F03DA00200146BDE8F08D00204FF449
:103FA0008011064684460EE0171B73EB050705D308
:103FB000121B63EB050306434CEA010C49084FEA68
:103FC000300092185B4150EA0107EDD152EA03003C
:103FD00012D082EA040083EA0501084305D0101BD1
:103FE000AB4106D20122002306E000224FF000433D
:103FF00002E06FF0010253101AEB06004CEB08517F
:1040000010EB0A0041EB0B01BDE8F04D00F08CB85D
:104010000EB5C10F80EAE0700844CA07002140F2E3
:1040200033438DE80E000A460B4600F08CF803B0CF
:1040300000BD70B5C1F30A5201F000450024C1F380
:10404000130140F2FF3341F480119A4201DA00205B
:1040500070BD40F233439A42A2F2334203DC524233
:1040600000F006F800E090402C43F1D0404270BDD3
:10407000202A04DB203A21FA02F00021704721FABD
:1040800002F3D040C2F12002914008431946704724
:10409000014900F003B80000400F002010B500688F
:1040A0003C22B0FBF2F302FB1303B0FBF2F00B6017
:1040B000B0FBF2F302FB1303B0FBF2F018224B60EB
:1040C000B0FBF2F302FB1303B0FBF2F0021D8B60B6
:1040D0000723B2FBF3F403FB1422800040F2B55334
:1040E00000F66C308A61B0FBF3F2B0FBF3F403FB33
:1040F0001400443280084A61C8613B2802D3920709
:1041000000D0401C0022074C13460A61E25C824248
:1041100003D8801A5B1C0B61F8E7401CC860084696
:1041200010BD0000A943000810B5141E73F100046F
:1041300008DA401C41F1000192185B411A4301D199
:1041400020F0010010BD2DE9F04D92469B4611B1C3
:10415000B1FA81F202E0B0FA80F22032904600F02B
:1041600053F804460F4640EA0A0041EA0B01534661
:104170005A46084313D0114653EA010019D0C8F13A
:1041800040025046FFF774FF05460E46504659461A
:10419000424600F039F8084305D0012004E02046EB
:1041A0003946BDE8F08D0020054346EAE0762C4311
:1041B00037430A986305E40AA0EB08000022FD0AD1
:1041C00044EA47540A3002D500200146E9E70105D8
:1041D00010196941DDE9084500196941BDE8F04D54
:1041E000A2E70000064C074D06E0E06840F001033E
:1041F00094E8070098471034AC42F6D3FBF77AFFF7
:10420000FC4300081C440008202A04DB203A00FA82
:1042100002F1002070479140C2F1200320FA03F31D
:1042200019439040704770B58C1810F8015B15F079
:10423000070301D110F8013B2A1106D110F8012B18
:1042400003E010F8016B01F8016B5B1EF9D12B073D
:1042500005D40023521E0DD401F8013BFAE710F8F3
:10426000013BCB1A921C03E013F8015B01F8015BE0
:10427000521EF9D5A142D8D3002070BD0FB4054B12
:1042800010B503A9044A029800F017F810BC5DF8B5
:1042900014FB0000370100089401002002E008C868
:1042A000121F08C1002AFAD170477047002001E0B0
:1042B00001C1121F002AFBD170472DE9F84F994622
:1042C000924688460546002706E025280AD0514632
:1042D0004A4690476D1C7F1C28780028F5D1384647
:1042E000BDE8F88F002315F8011F18462E2915D1B7
:1042F00015F8011F04232A290DD06FF02F02297809
:10430000A1F13004092C09D800EB800002EB400039
:1043100008446D1CF3E758F8040B6D1C2A78002A3A
:10432000DDD0632A07D0732A0FD0104651464A4683
:1043300090477F1C2AE018F8042B8DF800200021FC
:104340008DF801106E46012103E058F8046B4FF020
:10435000FF315A074FF0000401D409E0641C844285
:104360000BDA8C42FADB325D002AF7D105E0641CDF
:104370008C42FCDB305D0028F9D1274404E016F8BC
:10438000010B51464A469047641EF8D26D1CA3E7C4
:104390005AA50000000000005AA50000001F1C1FC5
:1043A0001E1F1E1F1F1E1F1E1F1F1D1F1E1F1E1F25
:1043B0001F1E1F1E1F0000003D3D3D3D3D3D3D3D7C
:1043C0003D3D3D3D3D3D3D3D3D3D3D3D3D3D3D5406
:1043D000696D652053657474696E67733D3D3D3D3D
:1043E0003D3D3D3D3D3D3D3D3D3D3D3D3D3D3D3DFD
:1043F0003D3D3D3D3D3D0D0A000000001C440008D0
:1044000000000020980100002642000844450008F2
:1044100098010020D8110000AC420008511201128E
:104420000212031A0408120572062D010203040485
:104430004009060708090204060884A24A04691B09
:104440001815333031303833444335333035393152
:1044500034443930303114181A3135424132354242
:104460003938464630433543304634453843363292
:104470003841251E36353335360518104535373267
:1044800038384642443542383135440F58104130AF
:104490004235393237354236363030333004281A17
:1044A0003137454334363637413830464436374461
:1044B00043373638343030353804280935334637F9
:1044C00039393130183D34453244702C3344361478
:1044D0001F354243363738A1592CE904292C180DD1
:1044E0003445433535463533363545356C2A3270DB
:1044F00019046A41801C353234741F303936353422
:1045000038121232580A41542B434D47533D222A48
:104510002936290429B269042918294A2904294677
:104520001536220D0A12FD1C0202FD051B03FC05B7
:104530001B04FB051B21DE05148877FD2C0331CFFE
:0445400005A301CE00
:04000005080000ED02
:00000001FF
